:020000040800F2
:1000000000040020DF5400084502000847020008F1
:100010004B0200084F0200085302000800000000D5
:10002000000000000000000000000000570200086F
:1000300059020008000000005B020008FD5400089F
:10004000FF540008FF540008FF540008FF54000844
:10005000FF540008FF540008FF540008FF54000834
:10006000FF540008FF540008FF540008FF54000824
:10007000FF540008FF540008FF540008FF54000814
:10008000FF540008FF540008FF540008FF54000804
:10009000FF540008FF540008FF540008FF540008F4
:1000A000FF540008FF540008FF540008FF540008E4
:1000B000C3400008FF540008FF540008FF54000824
:1000C000FF540008FF540008FF540008FF540008C4
:1000D000FF54000839320008E3480008FF540008C4
:1000E000FF540008FF540008FF540008FF540008A4
:1000F000FF540008FF540008FF540008FF54000894
:10010000FF540008FF5400082F3F0008FF54000868
:100110009B520008FF540008632D0008B932000804
:10012000FF540008FF540008FF540008FF54000863
:1001300000F002F800F05CF80AA090E8000C82449D
:100140008344AAF10107DA4501D100F051F8AFF27A
:10015000090EBAE80F0013F0010F18BFFB1A43F0A5
:100160000103184740B9010060B901000A444FF08B
:10017000000C10F8013B13F0070408BF10F8014B06
:100180001D1108BF10F8015B641E05D010F8016B4B
:10019000641E01F8016BF9D113F0080F1EBF10F8AF
:1001A000014BAD1C0C1B09D16D1E58BF01F801CBD2
:1001B000FAD505E014F8016B01F8016B6D1EF9D555
:1001C0009142D6D37047000000230024002500266A
:1001D000103A28BF78C1FBD8520728BF30C148BFAA
:1001E0000B6070471FB508F0E4FD1FBD10B510BDD2
:1001F00008F0B5FE1146FFF7F5FF00F058FA08F0D9
:10020000D3FE03B4FFF7F2FF03BC08F0DDFE0000ED
:100210000B49D1F800C04A685CF8043B10681844E8
:1002200042F8040B8C4528BFA1F1DC0C8A4228BFA0
:10023000A1F1DC02C1F800C04A6020F00040704724
:10024000A83C0020704700BFFEE700BFFEE700BFEC
:10025000FEE700BFFEE770477047704708B5012111
:10026000FE4806F088F84FF4A160ADF80000482081
:100270008DF803006946FA4805F0ACFF4FF40170B1
:10028000ADF8000018208DF8030003208DF802005F
:100290006946F34805F09EFF4FF40040ADF80000BA
:1002A00010208DF8030003208DF802006946EC4809
:1002B00005F090FFC020ADF8000014208DF8030079
:1002C00003208DF802006946E54805F083FF3020E1
:1002D000ADF8000003208DF8020010208DF8030017
:1002E0006946DF4805F076FF0120ADF800001820D0
:1002F0008DF8030003208DF802006946D84805F008
:1003000069FF0220ADF8000010208DF803000320E3
:100310008DF802006946D24805F05CFF47F60340BD
:10032000ADF8000014208DF8030003208DF80200C2
:100330006946CC4805F04EFF4FF44E70ADF8000012
:1003400048208DF803006946C64805F043FF342075
:10035000ADF8000014208DF8030003208DF8020092
:100360006946C14805F036FF4FF4F250ADF8000081
:1003700048208DF803006946BB4805F02BFF042098
:10038000ADF8000048208DF803006946B74805F035
:1003900021FF08BD08B54FF4C06005F0C5F8002185
:1003A0004FF0006005F0F7F836208DF800000120CE
:1003B0008DF8010000208DF8020001208DF8030067
:1003C000684605F0B6F819208DF8000000208DF879
:1003D00001008DF8020001208DF80300684605F049
:1003E000A8F81B208DF8000000208DF801008DF882
:1003F000020001208DF80300684605F09AF83220CB
:100400008DF8000000208DF801008DF80200012019
:100410008DF80300684605F08CF808BD10B505F0AE
:1004200031F8012146F63D0006F0E0F9012190483F
:1004300006F0E9F90121080206F0CBF910BD10B56C
:10044000FFF7ECFFFFF70AFFFFF7A4FF02F06AFCDB
:1004500004F050FF04F008FA04F090F907F090FC63
:1004600000F0C4FB83484FF0E0214861012008619F
:1004700010BD10B500212A2002F0E9FD00211F2047
:1004800002F0E5FD0021212002F0E1FD0021222003
:1004900002F0DDFD0021232002F0D9FD00212420FF
:1004A00002F0D5FD0A21292002F0D1FD00212020F3
:1004B00002F0CDFDC8212F2002F0C9FD4FF4FA61F2
:1004C000332002F0C4FD03212E2002F0C0FD0A21DA
:1004D000372002F0BCFD0021392002F0B8FD0021D8
:1004E0003B2002F0B4FD4FF49671432002F0AFFDC3
:1004F0004FF49671442002F0AAFD4FF49671462005
:1005000002F0A5FD4FF49671482002F0A0FD41F2E3
:1005100088314A2002F09BFD41F288314E2002F0E2
:1005200096FD41F28831502002F091FD0A215420BD
:1005300002F08DFD4621552002F089FD0021572053
:1005400002F085FD0021582002F081FD0021592094
:1005500002F07DFD0A215A2002F079FD0A215B207C
:1005600002F075FD0A215C2002F071FD0A215D2078
:1005700002F06DFD0A215E2002F069FD64215F201A
:1005800002F065FD6421602002F061FD0021612020
:1005900002F05DFD0021672002F059FD1421682062
:1005A00002F055FD4FF4FA61692002F050FD002180
:1005B0006E2002F04CFD14216F2002F048FD062150
:1005C000702002F044FD03212D2002F040FD322175
:1005D000282002F03CFD4FF4C871412002F037FDA5
:1005E0000021322002F033FD4FF416712B2002F06F
:1005F0002EFD06216A2002F02AFD0621662002F067
:1006000026FD3221302002F022FD40F6B83165206F
:1006100002F01DFD1421902002F019FD00218C2014
:1006200002F015FD0021512002F02CFD0021532085
:1006300002F028FD0021552002F024FD0021592060
:1006400002F020FD00210F2002F01CFD00210820F7
:1006500002F018FD002109200EE000000002300029
:1006600000080140000C014000100140001401404E
:100670001F400E38905F010002F004FD00210A20A7
:1006800002F000FD0021572002F0FCFC0021582060
:1006900002F0F8FC00215A2002F0F4FC01210620AF
:1006A00002F0F0FC00215B2002F0ECFC10BD00F039
:1006B000F0F93C2002F0D1FC28B1FFF7DAFE00216E
:1006C0003C2002F0DFFC02F03EFBFFF7B8FE62B612
:1006D00015E04FF0E020006900F4803008B1601CA4
:1006E000C4B286EA0405264600F00AF800F084F950
:1006F00003F03DF905F0010008B100F0E1F9E8E789
:100700002DE9F04F87B000200690282002F096FCDB
:100710000590622002F092FC0390632002F08EFCB0
:100720000290332002F08AFC0746372002F086FC54
:1007300000EB80004FF6FF7101EA4008392002F01B
:100740007DFC81463B2002F079FC82463D2002F090
:1007500075FC83462B2002F071FC0646592002F0FE
:100760007CFC012811D1B148007870B906FB07F56F
:10077000692002F063FCB5FBF0F5A9B22B2002F072
:1007800066FC0120A94908700AE0A8480078012801
:1007900006D1592002F061FC10B90020A34908706D
:1007A000A348007838B1A3480088864203D1A24804
:1007B0000088B8420BD007FB06F54FF47A70B5FB02
:1007C000F0F5A9B2342002F042FC012006909848CE
:1007D000007838B197480088864203D1974800884E
:1007E00040450BD008FB06F54FF47A70B5FBF0F5E9
:1007F000A9B2382002F02BFC012006908C4800782A
:1008000038B18C480088864203D18D48008848451D
:100810000BD009FB06F54FF47A70B5FBF0F5A9B2E1
:100820003A2002F014FC012006908148007838B18B
:1008300080480088864203D18248008850450BD00A
:100840000AFB06F54FF47A70B5FBF0F5A9B23C202F
:1008500002F0FDFB012006907548007838B175481C
:100860000088864203D17848008858450BD00BFB9E
:1008700006F54FF47A70B5FBF0F5A9B23E2002F010
:10088000E6FB012006904A2002F0D8FB04466848A7
:10089000007818B16D480088A04211D06B480480E0
:1008A00004B901246A4890FBF4F5B5F5803F02D302
:1008B0004FF6FF7400E0ACB221464B2002F0C7FBBC
:1008C000462002F0BBFB04465948007818B1614845
:1008D0000088A04211D05F48048004B901245C481C
:1008E00090FBF4F5B5F5803F02D34FF6FF7400E0BE
:1008F000ACB22146472002F0AAFB482002F09EFB42
:1009000004464B48007818B153480088A04211D0E3
:100910005148048004B901244D4890FBF4F5B5F525
:10092000803F02D34FF6FF7400E0ACB2214649206D
:1009300002F08DFB4E2002F081FB04463C4800781B
:1009400018B146480088A04211D04448048004B938
:1009500001243F4890FBF4F5B5F5803F02D34FF6F4
:10096000FF7400E0ACB221464F2002F070FB502033
:1009700002F064FB04462E48007818B1384800881D
:10098000A04211D03648048004B90124304890FBBD
:10099000F4F5B5F5803F02D34FF6FF7400E0ACB23A
:1009A0002146512002F053FB2E49049808802E491D
:1009B000059808802D49039808802D4902980880E1
:1009C0001D4807802B49019808802B490098088012
:1009D0001A48A0F800801A48A0F800901948A0F81A
:1009E00000A01948A0F800B0124806800120104964
:1009F000087007B0BDE8F08F70B5902002F01EFBC4
:100A000005468C2002F01AFBA8420ED0652002F0A9
:100A100015FB04462CB1601E84B22146652002F00D
:100A200016FB29468C2002F012FB70BD040000204A
:100A300005000020300000201600002028000020C3
:100A40002A0000202C0000202E0000200A00002098
:100A500040420F0006000020080000201200002085
:100A6000140000201C000020180000201A000020A4
:100A700022000020240000202600002001205349ED
:100A8000087070475248007810B90120504908702A
:100A9000704710B54F49504803F00EFE4F4950487B
:100AA00003F00AFE032408E021464B4803F0F2FD60
:100AB0004C4921F81400601C84B2FF2CF4DD10BDF9
:100AC00070B5002502F045F902F047F93F4800787B
:100AD00020B10020444908803C4908703C48007817
:100AE000012805D1002040490880022038490870BB
:100AF0003D480088002833D103F00FFA00282FD199
:100B000003F0DCFA60BB45F6C05037490880032487
:100B10000CE02146304803F0BDFD324931F8141095
:100B2000884201D0012503E0601C84B2FF2CF0DD77
:100B300000BFD5B105F073F8274803F0D8FD72B6B1
:100B4000002407E0274830F81410234803F0FEFD86
:100B5000601C84B2FF2CF5DD62B605F066F804E097
:100B600021480088401E2049088002F0F2F802F077
:100B7000F4F870BD10B505F052F8194803F0B7FD50
:100B800072B6002407E0174830F81410144803F038
:100B9000DDFD601C84B2FF2CF5DD62B605F045F882
:100BA00010BD10B5002408E021460D4803F072FD89
:100BB0000C4921F81400601C84B2FF2CF4DD0020E5
:100BC0000849088048808880C88010BD3400002013
:100BD0003500002000E001083800002000E801088E
:100BE00040000020A80100203600002010B50120A0
:100BF00005F039FC012005F066FD0BE0C4480068F3
:100C0000401CC349086008460068C249884201D3B5
:100C1000012010BD412005F0BEFC0028EED04FF4AD
:100C2000807005F06CFD012005F06FFD05F0A7FE5A
:100C300005F09CFE05F09AFE47F6FF7005F070FE89
:100C400005F094FE0020E4E700220A70B24ACA6070
:100C500004E0B24A801A0A78121D0A70AF4A904224
:100C6000F7D2AF4A90420ED9801A0A78521C0A7005
:100C7000AC4ACA6004E0AC4A801A0A78521C0A7076
:100C8000A94A9042F7D800224A7010E0CB685A1C5B
:100C9000CA601A78A54B5A438A608A68824202D891
:100CA0008A68801A00E005E04A78521C4A704A7847
:100CB0000C2AEBDB00BF9D4AB0FBF2F28A709B4A24
:100CC000B0FBF2F302FB13004FF46162B0FBF2F2EF
:100CD000CA704FF46162B0FBF2F302FB13003C22D6
:100CE000B0FBF2F20A713C22B0FBF2F302FB1302FA
:100CF0004A71704710B58E4800688E4909684418DB
:100D00008D492046FFF7A0FF10BD03460C2901DDE9
:100D10001E207047834A002000B17F4A505CF8E7EC
:100D200010B505F0E7FD83490860FFF7E3FF10BD4C
:100D300000B581480079401C7F4908710846007958
:100D40003C282BDB084600793C3808710846C078FF
:100D5000401CC8700846C07818281FDB0020C870E7
:100D600008468078401C88700A4651781078FFF752
:100D7000CCFF71498978884210DC00206E49887068
:100D800008464078401C4870084640780C2805DB2F
:100D90000020487008460078401C087000BD70B5FF
:100DA00005F0A8FD04466348006884421AD06148F3
:100DB0000068251A5F480460B42D02D9FFF79AFF36
:100DC00010E05D48407928445B49487106E05A4884
:100DD00040793C3858494871FFF7AAFF5648407996
:100DE0003C28F4DA70BD2DE9F04304460D461E465A
:100DF000DDE9077C002006E0DFF820814044A4F113
:100E0000040808F0FF04042CF6DA4349002C11DD35
:100E1000DFF80C8140444349A4F1010808F0FF04C5
:100E200006E0DFF804814044A4F1010808F0FF0463
:100E3000002CF6DC00230BE011F8018B40F2A32913
:100E400008FB09F800EBC81003F1010808F0FF03E4
:100E5000AB42F1DB91F80080904500DC0A7840F26B
:100E6000A32802FB08F800EBC810C6EB4618C8EB35
:100E7000062800EB0810C7EB071800EB8800604459
:100E8000BDE8F0832DE9FC4704460D4616461F4693
:100E9000DDE90A893B46324629462046CDE90089EC
:100EA000FFF7A1FF22490860002005F02CFD00207B
:100EB00020490860FFF71EFF1D480068BDE8FC8759
:100EC0001B4800681B490968084470471A480078A5
:100ED000704719484078704717488078704716481F
:100EE000C0787047144800797047134840797047BC
:100EF00030B505460C460E480560008800040C49D4
:100F000008600846006820440860FFF7F3FE30BD23
:100F10004800002060AE0A0000900008801F86078D
:100F20000085E201F48F00088033E1018051010067
:100F30004C000020500000208801002070B53020B7
:100F400002F07CF80546282002F078F80646F748BB
:100F50000088A84203D1F6480088B04228D001207A
:100F6000F449087005FB06F4600140F63541B0FB1A
:100F7000F1F0F149088008460088B0F5806F0BDB7E
:100F800040F2FF300880ED4890FBF5F0441CA1B220
:100F9000282002F05CF8A6B2E74800884FF6FF71FF
:100FA00001EA8000E44908800846008804F0C5F999
:100FB000DF480680DD48058070BD704710B502F03F
:100FC0009FFF0021084602F05DF80021012002F099
:100FD00059F80021022002F055F8002001F0F2FF3C
:100FE0000021242002F033F8082002F000F800204D
:100FF000D3490880D3490870D3490870D349087091
:10100000D3490870D3490870D3490870D349087090
:10101000D3490870D3490870D3490870D349087080
:10102000D3490870D3490870D3490870D349087070
:10103000D3490870D3490870D3490870D349087060
:10104000D3490870D3490870BA490870D24908805A
:10105000D2490870D2490870D2490870D249088034
:10106000D2490870D2490870D2490870D249087034
:10107000D2490870D2490870D2490870D249087024
:10108000D2490870D2490870D2490880D249087004
:10109000D2490870D2490880D2490880D2490880D4
:1010A000D2490870D2490870D2490870D2490880E4
:1010B000D2490870D2490870D2490870D2490870E4
:1010C000D2490880D2490870D2490880D2490880A4
:1010D000D2490880D2490870D2490870D2490880A4
:1010E000D2490870D2490870D2490870D2490870B4
:1010F000D2490870D2490870D2490870D2490870A4
:10110000D2490870D2490870D2490870D249087093
:10111000D2490880D2490880D2490880D249088043
:10112000D2490880D2490880D2490870D249087053
:10113000D2490870D2490870D2490870D249087063
:10114000D2490870D2490870D2490880964908806F
:10115000D1490870C64908809C4908709C490870AC
:10116000CE490870CE4908800121062001F08AFF8F
:101170000020C5490870C3490870BC4908806E4802
:10118000008804F0DAF810BD2DE9F04F8BB05B2039
:1011900001F063FF18B9022001F029FF02E00220EC
:1011A00001F01FFF01F096FE3A2001F047FF0228F0
:1011B00005DD3A2001F042FF801E1FFA80F83C2036
:1011C00001F03CFF022805DD3C2001F037FF801EC6
:1011D0001FFA80FA342001F031FF81464C46362058
:1011E00001F02CFF0A90402001F028FF099056489A
:1011F000007828B104EB0A0084B20020524908703C
:101200005248007828B104EB080084B200204F490E
:101210000870382001F012FF0746322001F00EFF5F
:1012200000B90027492001F009FF83464B2001F057
:1012300005FF0890472001F001FF0790412001F0D1
:10124000FDFE0690312001F0F9FE0590DDE9061261
:1012500008980023CDE9020BCDE900123A46214659
:10126000059802F09EFD402001F0B2FE20B14A48F0
:101270000088401C48490880222001F0DFFE834698
:10128000212001F0DBFE4FF4803101FB00B50F207F
:1012900001F0E3FE012810D04FF4006001F080FE61
:1012A00058B16D1CA9B2222001F0D1FE4FF6FF709B
:1012B00000EA1541212001F0CAFE232001F0BEFE04
:1012C00006460F2001F0C9FE01280BD04FF4006044
:1012D00001F066FE30B1701C80B206460146232044
:1012E00001F0B5FE292001F0A9FE83462E2001F071
:1012F000A5FEABEB0000B04203DB6A480078012892
:1013000003D101202E49087002E000202C4908700A
:101310000BB0BDE8F08F2DE9FF415B2001F09DFE91
:1013200018B9022001F05DFEC1E0BDE0F800002028
:10133000FA00002092000020FC0000203E86010000
:10134000880000208A0000209600002097000020DE
:1013500098000020990000209A0000209B000020A7
:101360009D0000209E0000209F000020A000002083
:10137000A1000020A2000020A3000020A400002063
:10138000A5000020A6000020A7000020A800002043
:10139000A9000020AA00002094000020AB0000203B
:1013A000AC000020AD000020B0000020B200002002
:1013B000B3000020B4000020B5000020B6000020DB
:1013C000B7000020B8000020B9000020BB000020BA
:1013D000BC000020BE0000207D0000207E00002018
:1013E0008000002082000020840000207200002085
:1013F0007300002074000020760000207800002098
:10140000790000207A000020DB000020DC000020B2
:10141000DE000020E0000020E2000020E4000020C8
:10142000E6000020E7000020E8000020F000002097
:10143000F1000020F20000208B000020D8000020E6
:10144000D9000020DA000020C0000020C1000020E8
:10145000C2000020C3000020C4000020C6000020FD
:10146000C8000020CA000020CC000020CE000020D0
:10147000D0000020D40000208D0000208E0000202D
:10148000D5000020D6000020D70000208C000020CE
:101490007B000020AE0000209C0000208600002081
:1014A000D2000020BA000020022001F0A0FD3A2066
:1014B00001F0C4FD06464F2001F0C0FD0446432064
:1014C00001F0BCFD0546312001F0B8FD074640F6AD
:1014D000B830CDE9005000231A463146CDE902402C
:1014E000384602F05EFC0120FE490870BDE8FF812D
:1014F0002DE9FF415B2001F0B0FD18B9022001F099
:1015000070FD02E0022001F072FD0220F649087031
:101510003C2001F093FD0646512001F08FFD04466A
:10152000442001F08BFD0546312001F087FD074680
:1015300040F6B830CDE9005000231A463146CDE9D7
:101540000240384602F02DFC0120E8490870BDE851
:10155000FF8170B50446E6480078002877D1E54859
:101560000078002856D0032001F077FD88B9E148C3
:10157000007801280DD102F0C3FC0020DE4908707C
:10158000DE4908804FF4007001F031FD0020D94998
:101590000870042001F061FD88B9D648007802285F
:1015A0000DD102F0ADFC0020D3490870D34908806A
:1015B0004FF4007001F01BFD0020CE49087003209D
:1015C00001F04BFD012874D1CB480078002870D180
:1015D00004F0020000286CD0C8480088401CC749AD
:1015E000088008460088B0F5FA6F62DD00200880A8
:1015F00002F086FC472001F021FD054600EBD57086
:10160000461031466FF0004002F04DFC0120BA490F
:1016100008704EE0032001F020FD012824D1B848D5
:10162000007808BBB7480078F0B9472001F006FD04
:10163000054629466FF0004002F035FC5B2001F0C2
:101640000CFD012804D1022001F0CBFC03E0C4E032
:10165000022001F0CCFC0120A6490870400201F0F4
:10166000C0FC0020A1490870042001F0F6FC01280C
:101670001FD1A3480078E0B9A2480078C8B9472034
:1016800001F0DCFC054629466FF0004002F00BFC3F
:101690005B2001F0E2FC18B9022001F0A2FC02E09C
:1016A000022001F0A4FC02209249087000208F491A
:1016B0000870052001F0D1FC012805D1924908707D
:1016C00000208A49087014E08F480078012810D162
:1016D00002208D490870042001F062FC10B1012045
:1016E0008A490870042001F05BFC10B90220874988
:1016F0000870322001F0A2FC012817D1042001F06B
:101700004FFC98B18048007802280FD100207E4914
:10171000087001207E4908707C480078012805D0B7
:1017200001207C490870002078490870322001F0BF
:1017300085FC022817D1042001F032FC98B97248C8
:10174000007802280FD100206F49087001207049ED
:1017500008706E480078022805D001206D49087095
:1017600000206A4908706848007801281BD132209F
:1017700001F064FCB8B15B2001F06FFC012803D1DB
:10178000022001F02EFC02E0022001F030FC492092
:1017900001F054FC054629466FF0004002F083FB3F
:1017A0000120574908705A480078012806D102F0F4
:1017B000A7FB00205249087055490870524800782C
:1017C00002280AD1322001F039FC30B902F098FB2E
:1017D00000204B4908704C49087070BD70B5044634
:1017E000012001F0E6FB002838D0012001F0D8FBF1
:1017F000002833D1484840884749088008468088F7
:1018000048800846C088888044480088C8800846C8
:101810000088498808444049898808443E49C98865
:101820004518C5F38F003D490880084600882828E0
:1018300011DD3948008870B10846008847F2305100
:1018400001EB600535480088B5FBF0F086B2314603
:10185000202001F0FCFB0020304908802F48008840
:10186000B0F5FA6F03DD0021202001F0F0FB04F059
:10187000040050B12948008847F6FF71884204DA15
:1018800026480088401C25490880082001F088FB74
:10189000002868D116480078002864D1012020492A
:1018A00008702049087004F01000002864D01E4819
:1018B0000088401C1C4908805F2001F0BFFB1A49CA
:1018C0000988884258DA00201849087015490870BC
:1018D000174908701749087013490880652001F0FE
:1018E000ADFB29E097000020DB00002096000020DF
:1018F0008A000020AC000020AD000020760000200F
:101900007B000020BC000020790000207A0000202D
:1019100078000020BB00002068000020700000203C
:1019200099000020B5000020DC000020B400002059
:10193000B8000020B9000020A0B1FE4800780128BE
:101940001AD00120FC490870FC490870FC49087055
:101950000020FC490870012101F094FB01212420A2
:1019600001F075FB08E0F7480078012804D1002059
:10197000F5490880F5490870802001F01AFBB8B1DC
:10198000802001F00DFB98B9EB48007801280FD1B9
:10199000EF48007801280BD1542001F04FFB0028BC
:1019A00006DD4FF4807001F01CFB0120E94908704E
:1019B000802001F0FEFA78B1802001F0F1FA58B9E8
:1019C000542001F03BFB002806DD4FF4807001F04D
:1019D00008FB0120DF490870202001F0EAFA58B125
:1019E000202001F0DDFA08B9012000E000200646C1
:1019F0003146032001F046FB402001F0DAFA58B1ED
:101A0000402001F0CDFA08B9012000E00020064690
:101A10003146042001F036FB102001F0CAFA38B13B
:101A2000102001F0BDFA18B90121084601F02AFB87
:101A30004FF4807001F0B4FA00284BD1BE48007812
:101A4000012847D104F00100F0B3C3480078D8BBA7
:101A5000C2480088401CC1490880602001F0EEFAAD
:101A600000EB8000BD490988B1EB800F35DD6020B7
:101A700001F0E4FA40B30020B84908800120B849D9
:101A800008700621242001F0E2FA0020B049087015
:101A90000120B1490870B34908700020B2490870AC
:101AA000B2490870B2490870B2480078012803D0E2
:101AB000B1480078012810D10020AE490870AE4925
:101AC00008709D49087000E007E0A5490870A24928
:101AD000087002E00020A14908804FF4007001F076
:101AE0005FFAE0B15A2001F0B8FAC0B1A34800781B
:101AF000A8B90521242001F0AAFA0120A049087004
:101B00008D48007801280AD19C49087094490870D2
:101B100000209549087095490870954908704FF460
:101B2000806001F046FAB0B14FF4806001F038FAFD
:101B300088B9532001F091FA68B97F4800780128EC
:101B400009D1402001F044FA28B1402001F04FFAB9
:101B500001208C49087070BD2DE9F047804602F0E5
:101B6000DCF930B9022001F042FA012001F03FFA1D
:101B700002E0012001F035FA322001F05FFA04465C
:101B8000012C06D1042001F00BFA074602F088F977
:101B90000BE0022C09D1042001F002FA08B901205F
:101BA00000E00020074602F07BF9322001F046FAFF
:101BB00075490988884210D0242001F03FFA042892
:101BC00006D10021242001F042FA00206F4908804C
:101BD000322001F033FA6C49088057480078012818
:101BE00070D15648007801280CD10020684908704F
:101BF0000220524908700020664908800120664989
:101C00000870DEE04D4800780228FAD1604800787C
:101C10000028F6D14A480078002840D0552001F02D
:101C20001CFA58B9402001F0DCF90120484908703D
:101C30000020434908704149087030E05748007857
:101C400020B1012808D0022828D113E001205449EE
:101C500008705249087021E05148007848B94FF4A3
:101C6000007001F0BEF901204E49087002204B4976
:101C7000087013E04B48007878B9402001F0B1F9C2
:101C800000202F4908702D490870444908703448D5
:101C9000007810B901202E49087000BF00BF4248EB
:101CA0000078E8B3552001F0D8F960B9402001F080
:101CB00098F901202649087000203B4908701F4907
:101CC000087033E036E23548007820B1012808D0AA
:101CD00002282AD113E00120314908702F490870E9
:101CE00023E02F48007848B94FF4007001F079F9EB
:101CF00001202C49087002202849087015E0294865
:101D0000007888B9402001F06CF90020264908705D
:101D10000A490870214908701148007820B900E08C
:101D200004E001200A49087000BF00BF1F48007886
:101D3000F0B33EE0860100208A0000209B000020D6
:101D40009D00002099000020DC000020B50000204C
:101D50008B0000208E000020A7000020D000002073
:101D6000A2000020B8000020A4000020A500002050
:101D7000DA000020A9000020A8000020A600002012
:101D8000B90000208F00002088000020B000002053
:101D9000E600002094000020D6000020A1000020D2
:101DA000A0000020C00000209E0000209F00002016
:101DB00007E00120FD4908700020FD490870FD4939
:101DC0000870FA480078012817D1FB4800780128EC
:101DD00005D1FA4908700020F44908700DE001208F
:101DE00001F0E7F848B1012001F0DAF828B902F073
:101DF00094F810B90120F2490870F24800780128DF
:101E000011D1022001F0D5F8D0B3022001F0C8F8BA
:101E1000B0BB402001F0EBF80220EA490870002036
:101E2000E24908702CE0E7480078022806D102F069
:101E300074F828BB0320E349087021E0E1480078EA
:101E400003281DD1E0480088401CDF49088061203C
:101E500001F0F4F800EB8000DB490988B1EB800F5A
:101E600003DA612001F0EAF850B90020D649088071
:101E7000D4490870402001F0B4F80120CB49087023
:101E8000D2480078012816D101F0FCFF81463420A9
:101E900001F0D4F80746552001F0D0F847436420FC
:101EA00097FBF0F0814506D94FF4007001F09FF8E0
:101EB0000020C6490870C6480078012833D10020A8
:101EC000C349087001F0E5FF40B3C2480088401CD8
:101ED000C04908800120C04908702D2001F0AEF8EB
:101EE00008B32D2001F0AAF8BA49098888421ADC03
:101EF0000120BA4908700421242001F0A8F801202B
:101F0000AE4908700020A9490870B2490880B44958
:101F10000870B4490870B449087004E00020AE4964
:101F20000870AC490880B1480078012829D1062002
:101F300001F093F8012824D10020AD490880012048
:101F4000AC4908700020A9490870202001F076F8FB
:101F5000B8B1282001F072F80746302001F06EF881
:101F60004743202001F06AF897FBF0F5322D00D2AC
:101F70003225A9B2302001F06AF80121072001F0D2
:101F800081F88F480078012809D1400201F029F832
:101F900001209949087002208949087014E0884896
:101FA0000078022806D19448007868B90320844953
:101FB000087009E082480078032805D101208F4984
:101FC000087000207E4908708B48007801280CD1E9
:101FD0003A2001F033F828B1FFF79DF90220864935
:101FE000087002E000208449087001F096FF40B9B3
:101FF00081480078022804D100F0F9FF00207E49D2
:1020000008707E480078012813D17049087080025A
:1020100000F0E7FF00207A490870FFF7B5F80220CA
:1020200076490870532001F018F8012801D165495C
:10203000087072480078022810D101F06EFF68B96C
:102040004FF4007000F0D3FF00206E4908706B4918
:10205000087001206C4908705D4908706A48007872
:10206000012823D1002068490870292000F0E6FFEC
:102070000546232000F0E2FF0746292000F0DEFF9E
:10208000874213DB292000F0D9FF78B101205F4996
:1020900008700021232000F0DAFF1F2000F0CEFF9F
:1020A000401C87B239461F2000F0D1FF5748007806
:1020B00001283FD10020554908700120544908707B
:1020C0002A2000F0BBFF052833D2DFE800F003042C
:1020D000121927002DE001203849087000203349EB
:1020E000087001203E4908700321242000F0AFFF52
:1020F0001FE001203149087000202C49087018E0C9
:1021000001202E4908700020284908700120354917
:1021100008700921242000F09AFF0AE000202349DA
:1021200008700120304908700A21242000F08FFF38
:1021300000BF00BF3648007801280CD100F039FFFD
:1021400048B1012000F02CFF28B93248007810B9BE
:102150000120304908703048007801281BD12C48F4
:10216000007858B90120134908702C4908700020E4
:10217000294908700121242000F069FF0E480078E9
:10218000012808D10021242000F061FF002022490D
:1021900008702349087014480078012857D100F0CE
:1021A00008FFF8B3012000F0FBFE3CE08B000020AC
:1021B0009F0000209B0000209A000020A200002029
:1021C000AB00002086000020D20000208D000020FF
:1021D000C1000020B0000020B4000020A3000020B7
:1021E000A4000020A5000020DA000020D700002075
:1021F00094000020D6000020A0000020C000002095
:10220000D5000020B7000020C20000207E00002082
:10221000AA0000207D000020A90000209E000020D0
:102220008A00002009E040B90220FE490870012020
:10223000FD4908700020FD490870FD48007801281C
:1022400021D1FC4908700020F64908701BE0F548D0
:102250000078022817D1F848007858B90120F749CA
:102260000870F74908700020EE4908700121242009
:1022700000F0EDFEEE480078012804D1ED49087029
:102280000020E8490870EB480078012822D100F0CE
:1022900090FEF8B1012000F083FED8B90220E54994
:1022A0000870E848007810B90120DF4908706A20FA
:1022B00000F0C4FE80023C2190FBF1F6B600B6F5BA
:1022C000805F01D340F6FF76B0B203F036F8082005
:1022D00000F087FED7480078022878D100F069FE28
:1022E000002874D0022000F05BFE00286FD140204F
:1022F00000F07DFE0020CD490870D3490870D34915
:1023000008700021062000F0BDFE0020D0490880A2
:10231000D048008803F011F8082000F068FEFEF7AE
:10232000ADFB0120CC4908700020CC490880002179
:10233000012000F0A7FE0021022000F0A3FE0020F3
:10234000C7490870C7480078582802D10020C549FD
:102350000870B748007801280FD10020B5490870EF
:10236000B3490870C04908700021084600F08AFE91
:102370000021242000F06BFE57E0BC4800780128C3
:1023800008D10020AB490870B84908700120B8494D
:1023900008704AE0B7480078012808D10020A54914
:1023A0000870B44908700120B34908703DE0B34893
:1023B000007801280CD100209E490870AF490870B0
:1023C000A94908700021084600F05CFE2DE02FE0CE
:1023D000AB48007801280BD10020A349087095492B
:1023E0000870A74908700021084600F04BFE1CE069
:1023F000A448007801280BD100209B4908708D4922
:102400000870A04908700021084600F03BFE0CE06F
:10241000002088490870944908700021242000F0A9
:1024200016FE0021084600F02DFE00209549087098
:102430007D48007801280CD13C2000F0FFFD28B138
:10244000022079490870FFF753F802E0002076492E
:10245000087001F062FD30B973480078022802D19B
:102460000020714908708848007890B98748007842
:1024700078B98748007860B98648007848B98648B6
:10248000007830B98548007818B94FF4805000F0D2
:10249000AEFD7D480078012813D07C4800780128E3
:1024A0000FD07B48007801280BD07A4800780128AB
:1024B00007D079480078012803D0784800780128AF
:1024C00003D14FF4805000F08CFD6548007801285E
:1024D0000CD100206C4908706C4908706C49087078
:1024E0006C4908706C4908706C490870BDE8F08749
:1024F00010B50446082000F0B0FD58B100210820B6
:1025000000F0C0FD0021212000F0A1FD00212220CB
:1025100000F09DFD092000F0A0FD38B10021092048
:1025200000F0B0FD0021232000F091FD0A2000F012
:1025300094FD38B100210A2000F0A4FD00211F20E5
:1025400000F085FD0F2000F088FD012804D04FF435
:10255000006000F025FD18B901205149087002E023
:1025600000204F490870022000F077FD08B1FEF707
:1025700025FD002000F071FD28B33B48007810BB1A
:1025800001204849087000203F4908703F49087001
:102590004149087041490870652000F04FFDC8B1FD
:1025A00041480078012815D001202F49087023499F
:1025B00008703E49087000203A4908700121242023
:1025C00000F045FD06E037480078012802D10020E0
:1025D0002E490870012000F040FD012811D120484B
:1025E000007870B901201E49087011490870FEF783
:1025F00045FA4FF4007000F0FAFC0021012000F0D1
:1026000041FD0B480078012865D11748007838B99A
:102610000020074908700021242000F018FD47E041
:1026200059E00000DA000020DB000020E700002075
:102630009A000020A2000020AA0000209B00002099
:102640009F00002096000020D6000020D700002028
:10265000CE000020FC000020D5000020D00000208B
:102660008C000020860000208A000020A4000020AA
:10267000A8000020A5000020A9000020A300002041
:10268000A6000020A7000020B4000020B500002014
:10269000B6000020B7000020B8000020B9000020DC
:1026A000BA00002098000020860100209D00002034
:1026B0000021012000F0E6FC0020FE490870FE49E0
:1026C0000870FE490870FE490870FE490870FE490E
:1026D0000870FE49087010BD10B50446FC4800782B
:1026E000012816D1F649087004F0020000283FD0F6
:1026F000F8480088401CF749088008460088C82828
:1027000036DD00200880EE4908700220F04908708C
:102710002EE0EF480078022814D104F0020038B30C
:10272000EC480088401CEB49088008460088C8280F
:102730001EDD002008800120E14908700320E449E3
:10274000087015E0E2480078032811D104F0020077
:1027500070B1E0480088401CDE49088008460088C7
:10276000C82805DD00200880D5490870D8490870C0
:10277000D948007801280ED10020D7490870D749E0
:1027800008800120D64908700020D6490870012130
:10279000062000F077FCD2480078012810D1CE48FE
:1027A000007868B9CD480088092809DB0020CC49A9
:1027B00008700120CB4908700021062000F062FC5F
:1027C000C9480078012830D104F01000C8B1C748CA
:1027D0000088401CC54908802F2000F02FFCC34909
:1027E000098888420DDA0121242000F030FC002005
:1027F000BE490880BC4908700120BD490870BD4928
:102800000870BD48007801280FD10021242000F075
:102810001EFC0020B5490880B34908700021012042
:1028200000F030FC0020B5490870B5480078012858
:1028300017D104F01000A0B1B2480088401CB14983
:102840000880672000F0FAFBAE490988884208DA60
:102850000020AC4908800220A9490870802000F0BF
:10286000C0FBA7480078022816D104F0100098B1E8
:10287000A4480088401CA3490880682000F0DEFBC3
:10288000A0490988884207DA00209E4908809C49AF
:102890000870802000F0ABFB9B480078012816D11F
:1028A00004F0100098B199480088401C97490880AE
:1028B0005E2000F0C3FB95490988884207DA0020B2
:1028C0009249088090490870402000F08AFB9048A7
:1028D0000078012814D104F0100088B18D480088D8
:1028E000401C8C4908805C2000F0A8FB89490988BD
:1028F000884205DA00208749088002208449087050
:1029000083480078022817D1102000F06AFB04F0F9
:10291000100088B180480088401C7F4908805D20F5
:1029200000F08CFB7C490988884205DA00207A494E
:10293000088003207649087075480078032823D161
:10294000572000F08AFBF8B9202000F04AFB04F081
:102950001000C8B171480088401C704908805B2095
:1029600000F06CFB6D49098888420DDA00206B4944
:10297000088067490870202000F039FB102000F023
:1029800036FB0020664908706648007801281ED191
:1029900065480078D8B904F00200C0B163480088E7
:1029A000401C6249088008460088B0F5FA6F0EDDC9
:1029B0005F49088800EBD07149105E4A1180002001
:1029C0005A49088001205849087001F099FA5A487C
:1029D0000078012818D104F01000A8B157480088E9
:1029E000401C56490880542000F028FB53490988B0
:1029F000884209DA0020514908804FF4807000F0C5
:102A0000F6FA00204C4908704D480078012817D18B
:102A100004F01000A0B14B480088401C49490880D0
:102A2000572000F00BFB47490988884208DC4FF427
:102A3000806000F0DCFA00204149087041490880BC
:102A400010BD00F4806179B13F49097831B90421A2
:102A50003E4A516101213C4A117005E004213B4A84
:102A600011610021384A1170704770B5054605F0B4
:102A70000400002808D03648007830B90A2001F058
:102A8000BFFE012032490870AFE0314800780128CC
:102A900079D101F0C2FE04462E480078401C2D4931
:102AA00008702D48006820442B49086029480078A8
:102AB000142853E08C000020B4000020B500002052
:102AC000B6000020B7000020B8000020B9000020A8
:102AD000BB000020BE0000209200002094000020D7
:102AE000D6000020D7000020A8000020E40000202D
:102AF0009B0000209E0000209A0000208A000020F9
:102B0000C3000020C60000208F000020900000209D
:102B10007D00002080000020820000208400002032
:102B2000AA000020F00000207400002076000020A1
:102B3000EC000020EE0000208E000020CA000020E3
:102B4000D5000020CC0000205400002000100140DF
:102B500058000020640000205C0000200ED10846D0
:102B600000681421B0FBF1F084B22146102000F07F
:102B70006EFA0020634908706349086002206349C7
:102B8000087032E0FFE761480078022806D10B2088
:102B900001F036FE03205D49087026E05B480078AE
:102BA000032822D101F039FE044659480078401C20
:102BB00057490870574800682044564908605448EF
:102BC000007814280ED1084600681421B0FBF1F0FB
:102BD00084B22146112000F03AFA00204C490870D6
:102BE0004C49086000204949087070BD10B5044682
:102BF0003C2000F032FA28B1FDF740FF00213C20D4
:102C000000F040FA0D2000F028FA012805D1FDF768
:102C1000B1FF00210D2000F035FA0E2000F01DFA62
:102C2000012805D1FDF7BDFF00210E2000F02AFA92
:102C300010BD10B504463848007801280AD170202C
:102C400000F0FCF93549087002203349087004206F
:102C500000F0C7F930480078022811D12F480078D9
:102C600040B104F0020058B12C480078401E2B49B6
:102C7000087005E0042000F0BAF900202649087029
:102C800010BD10B5512000F0E8F920B94FF40060F4
:102C900000F0ADF903E04FF4006000F0A2F910BDC0
:102CA000704710B5044604F4805020B11C480078E9
:102CB00008B905F079FF10BD10B504462046FFF7AE
:102CC00095FF2046FFF7BDFE2046FFF7CEFE2046CB
:102CD000FFF7AFFF2046FFF70BFC2046FFF7FCFC99
:102CE000FFF7CFFF2046FEF734FC2046FEF776FDC7
:102CF0002046FEF731FFFEF721F92046FFF7D1FF0E
:102D000010BD0000640000205C000020580000207E
:102D10006500002060000020F3000020F600002085
:102D20008A00002010B500F027FA232027490885E3
:102D300040F2F310888501200880888100F0E6FFCA
:102D400000F0E8FE10BD10B500F046F8FEF735F9CA
:102D500010BD00201D498881704701201B498881D2
:102D6000704770B500201949088219480068194950
:102D7000086017480068401C15490860154800683D
:102D8000096848401349086000F02FF800F0A2F8E5
:102D900000F003F9C543A9B20B2000F058F900F088
:102DA00014F90546A9B20D2000F051F902F0F0FA2D
:102DB0000646C01706EB907084102146122000F0E2
:102DC00046F904480068FFF777FF70BD0010004027
:102DD00004010020000100204FF0FF308D49086001
:102DE000084600688C490860704710B58B4A9068A7
:102DF00000F04002520100F4805342EA931200F4C2
:102E0000806342EA930200F400731A4300F4006303
:102E100042EA1311824A106800F0040241EAC2013A
:102E2000804A106800F0080241EA420200F01003F4
:102E300042EA530200F0200342EAD30200F4807316
:102E400042EAD312C0F3402342EA0301764A1068F3
:102E500000F4807241EA8201744A1278521CD2B2A4
:102E6000724B1A70042A01DB00221A70704A6F4BF1
:102E70001B7842F8231012686D4B5B681A436C4B49
:102E80009B681A436A4BDB681A43694B1B68684CA2
:102E900064682340664CA4682340654CE468234082
:102EA00082EA03015B4A12685B4B1A60594A126856
:102EB0000A40584B1A605E4A12688A431B681A43DC
:102EC000544B1A601A461268534B1B685A40594BB0
:102ED0001A6010BD5849097801F00101564A12786C
:102EE00002F002021143544A127802F0040241EA4D
:102EF0000211514A127802F0080241EA0210C3217D
:102F00008143494A0832116000F0C301121D11606B
:102F10004949097801F08001474A1278C2F38012CA
:102F200042EA9111444A128802F4807241EA820115
:102F3000414A128802F4007241EA82013E4A128834
:102F400002F4806241EA82013B4A128802F4006284
:102F500041EA8201384A128802F4805241EA820032
:102F600047F6034181432F4A0832116047F6034177
:102F70000140121D11603049097801F010012E4AFC
:102F8000127802F0200241EA020030218143234AF4
:102F9000116100F03001516170471E4800687047B0
:102FA00001461C480068084008B101207047002015
:102FB000FCE701461F480068084008B1012070473F
:102FC0000020FCE71C49086070471B4800687047F8
:102FD000014619480068084008B1012070470020E8
:102FE000FCE7154909680143134A1160704712490B
:102FF00009688143104A1160704729B10E4A12686E
:1030000002430D4B1A6004E00B4A126882430A4BDC
:103010001A607047100100200C01002000100140D0
:1030200008140140080C0140080801400801002074
:103030009801002014010020200100200146FF29F2
:1030400001DD00207047F94830F81100FAE7FF2849
:1030500002DCF64A22F8101070470146CA10B2F599
:10306000007F01DB00207047F1480068825C01F0BE
:103070000700F04B33F81000104008B10120F2E7D0
:103080000020F0E730B50246D010B0F5007F00DB3D
:1030900030BD61B1E64B1B681B5C02F00704E54DD7
:1030A00015F814402343E24C246823540BE0E04B12
:1030B0001B681B5C02F00704DE4D35F81440A34387
:1030C000DB4C2468235400BFE2E770B501460020C2
:1030D000CB1001F00701002519E0D54E3668F45CED
:1030E000D44E16F811200DE0401004EA02060EB18D
:1030F00040F080006E1CF6B23546082E00DB70BD35
:103100005606320E002AEFD100215E1CB3B2B3F591
:10311000007FE2DB00BFF2E71FB50121202003F0B2
:1031200072FBC548008800EB80004FF6FF7101EA92
:103130004000ADF808004FF4E150ADF80400002065
:10314000ADF80A00ADF8060001A9BC4803F0B8FCD0
:1031500001221146B94803F05AFF37208DF80000CC
:1031600003208DF801008DF8020001208DF8030086
:10317000684602F0DEF91FBD00B585B04FF49640F9
:1031800001900020ADF80800ADF80A00ADF80C0081
:10319000ADF810000C20ADF80E0001A9A84804F00D
:1031A0003CFA0121A64804F0A9FA40F22551A448AE
:1031B00004F0A8FB012240F22551A14804F0AAFA2C
:1031C00025208DF8000002208DF801008DF8020006
:1031D00001208DF80300684602F0ABF90121984800
:1031E00004F08CFA4FF4006096490860FFF794FFF2
:1031F00005B000BD70B504460D464FF4006091491E
:10320000091F08600BE000BF80218D4804F03AFBE5
:103210000028F9D014F8011B894804F0DCFA281EB4
:10322000A5F10101CDB2EED100BF4021844804F0E8
:1032300029FB0028F9D070BD70B540F225518048B7
:1032400004F036FB60B307217D4804F01BFB08B196
:10325000012400E000247A4804F0C1FAC5B27A489B
:10326000008840F2FF71884215DAA4B977487649A0
:103270000988455474480088401C7349088001211E
:103280006E4804F083F900216C4804F03BF90121F9
:103290006A4803F0A1FE40F22551694804F032FB70
:1032A0004FF45871664804F003FB012803D108214C
:1032B000634804F0F4FA70BD10B501215F4804F0D2
:1032C00054F978B101215D4804F060F900215B48B0
:1032D00003F082FE4FF400605A49091F0860012084
:1032E0005B49087010BD2DE9F041584840795749B5
:1032F000097940EA01205749088057480088098821
:10330000084464284DDA5148C0785049897800EB68
:10331000012086B24D480078504908704B484078EB
:1033200048704C490888C11700EB5171CC104949CD
:103330000888C11700EB5171C910A0EBC10109B198
:10334000601C84B245498C700327434805883F4878
:10335000C0783E49497946180AE0E8B2FFF7B5FE61
:1033600039467A1C97B23D4A505405F1080085B29F
:10337000B542F2DBE01C81B2384801F06BF9384904
:10338000088008460178354A201D115434480088C9
:10339000010AE01C1154601DC1B21046FFF72AFF5C
:1033A0000EE02A4800782D4908702848407840F0FF
:1033B000800048700220887003212848FFF71AFF18
:1033C000BDE8F0812DE9F041204840791F49097995
:1033D00040EA01201F4908801F48008809880844E6
:1033E000642863DA194800781C4908701748407847
:1033F000487018490888C11700EB5171CC10154965
:103400000888C11700EB5171C910A0EBC10109B1C7
:10341000601C84B211498C7003270F4805880B4843
:10342000C0780A494979461827E00000A801002021
:103430002C9000080C9000082A0100200014004085
:1034400000380140140801402C010020A80300208E
:103450002E0100203401002032010020A80B0020A2
:1034600036010020E8B2FFF730FE39467A1C97B2E9
:10347000FE4A505405F1080085B2B542F2DBE01C6B
:1034800081B2FA4801F0E6F8F94908800846017867
:10349000F64A201D1154F6480088010AE01C115418
:1034A000601DC1B21046FFF7A5FE0EE0F14800789E
:1034B000EE490870EF48407840F0800048700220E4
:1034C00088700321E948FFF795FEBDE8F08170B5EB
:1034D000E9480088B0F57A7F3CDAE648C478E51020
:1034E00004F007040079FF2803D0E2484079FF2860
:1034F00005D1E14908780121FFF7C4FD04E0DE4968
:1035000008780021FFF7BEFDDA480078D749087037
:10351000D84840784870D74880788870D548C078B7
:10352000C870D44800790871D248407948710621A2
:10353000CE4801F08FF8CE49088008460078CB4984
:10354000C871CB480088000A88710821C748FFF776
:1035500051FE0EE0C7480078C4490870C54840785D
:1035600040F080004870022088700321BF48FFF7B8
:1035700041FE70BD10B5BF484079BE49097940EAA7
:103580000120BE490880BC48008809880844B0F57D
:103590007A7F56DA00242AE0E11704EB5171C91052
:1035A000C91DB44A515C01F0010139B1B249097831
:1035B0002144C8B20121FFF765FD06E0AE49097854
:1035C0002144C8B20021FFF75DFDE11704EB517102
:1035D000C910C91DA74A515C4A102046E11704EBE7
:1035E0005171C910C91DA34B5A54601C84B2A34821
:1035F00000888442D0DB9F4800789C4908709D4831
:10360000407848709B48807888709A48C078C87025
:103610009848007908719748407948710621934885
:1036200001F018F892490880084600788F49C8715F
:103630008F480088000A887108218C48FFF7DAFD5E
:103640000EE08C480078894908708A48407840F03C
:10365000800048700220887003218448FFF7CAFD6B
:1036600010BD70B5834840798249097940EA01204C
:10367000824908808048008809880844B0F57A7F2C
:1036800050DA7C480078794908707A484078487068
:103690007A4800784006000E887077480588002434
:1036A00014E0291988B2FFF7C9FC0012032101EBCD
:1036B00044016E4A5054291988B2FFF7BFFC042117
:1036C00001EB4401694A5054601C84B26B48008885
:1036D0008442E6DB69480088032202EB400081B2A5
:1036E000624800F0B7FF62490880084601786348E5
:1036F0000088042202EB40005C4A11545C480088B8
:10370000010A5E480088032202EB4000574A115428
:103710005A480078052202EB4000C1B25348FFF737
:1037200069FD0EE0534800785049087051484078D0
:1037300040F0800048700220887003214B48FFF75A
:1037400059FD70BD70B54B4840794A49097940EA46
:1037500001204A4908804848008809880844B0F593
:103760007A7F50DA434800784049087041484078F1
:103770004870424800784006000E88703E48058830
:10378000002414E0291988B2FFF758FC0012032125
:1037900001EB4401354A5054291988B2FFF74EFC19
:1037A000042101EB4401314A5054601C84B2334877
:1037B00000888442E6DB31480088032202EB4000A7
:1037C00081B22A4800F046FF29490880084601785E
:1037D0002A480088042202EB4000244A115424485D
:1037E0000088010A25480088032202EB40001F4A96
:1037F000115422480078052202EB4000C1B21B4858
:10380000FFF7F8FC0EE01B480078184908701948CB
:10381000407840F0800048700220887003211348EF
:10382000FFF7E8FC70BD70B5134804881148407973
:103830001049097900EB012085B229462046FFF79F
:1038400006FC0C480078094908700A48407848701E
:103850000848807888700748C078C87005480079A3
:103860000871044840794871062109E0A80B00203E
:1038700036010020A803002032010020340100207E
:103880009B4800F0E7FE9B4908800846007898496D
:10389000C87198480088000A887108219448FFF789
:1038A000A9FC70BD2DE9F04193484079924909790E
:1038B00040EA01209149088091480088098808441D
:1038C000B0F57A7F42DA8E480588002414E0281982
:1038D00086B2082000EB44008749085C072101EB11
:1038E0004401854A515C00EB012087B239463046DD
:1038F000FFF7ADFB601C84B2804800888442E6DBA1
:103900007D4800787A4908707B48407848707A484A
:10391000807888707848C078C870774800790871D6
:103920007548407948710621714800F093FE71494D
:103930000880084600786E49C8716E480088000A01
:10394000887108216A48FFF755FC0EE06A48007844
:10395000674908706848407840F08000487002204D
:10396000887003216248FFF745FCBDE8F08110B57F
:1039700064480078012870D15F480078624909786E
:1039800088426BD15C48407801281BD05A48407867
:10399000022817D058484078032813D0564840785A
:1039A00004280FD05448407805280BD0524840785E
:1039B000062807D0504840780F2803D04E4840785A
:1039C00010287BD14C48C0784B49897840EA0120C7
:1039D0004B49088008460088B0F5FA6F5DDA4B481D
:1039E0000088642859DA49480088801E81B242481C
:1039F00000F030FE3F49088044480088401E3E49A0
:103A0000095C42480088801E3B4A105C41EA002461
:103A100038480088A04230D110464078052816D09A
:103A200008DC012810D002280BD0032817D0042866
:103A300021D117E0062818D00F280BD010281AD152
:103A400016E0FFF750FC17E0FFF7BCFC14E0FFF7AF
:103A50003EFD11E0FFF78EFD0EE047E03DE0FFF791
:103A600000FE09E0FFF7FDFD06E0FFF7DCFE03E0E6
:103A7000FFF718FF00E000BF2FE01F4800781C4947
:103A800008701D48407840F080004870042088701D
:103A900003211748FFF7AEFB1FE0174800781449D1
:103AA00008701548407840F0800048700220887007
:103AB00003210F48FFF79EFB0FE0FFE70E48007859
:103AC0000B4908700C48407840F080004870012095
:103AD000887003210648FFF78DFB00200949087014
:103AE0000A4908804FF400600949086010BD0000D1
:103AF000A80B002036010020A8030020340100207C
:103B0000320100202E010020290100202C0100207C
:103B10001408014021207149088057206F4910394D
:103B2000088001206D49183908806C48001F008802
:103B300040F001006949091F08800020091F088022
:103B400021206749088057206549103908800120E5
:103B50006349183908806248001F008840F001005E
:103B60005F49091F08800020091F08807047002056
:103B70005C49088010E000205B495A4A128821F80D
:103B8000120000215948574A128820F8121055484F
:103B90000088401C53490880524800881428EADBFA
:103BA00000205349088053490880534908805349ED
:103BB000088053490880534908605349086070479A
:103BC0004B4A1288521C4A4B1A801A461288C82A3D
:103BD0007CDB00221A80434A1288521C414B1A8017
:103BE0001A461288142A01DB00221A803B4A0C3242
:103BF0001088404A1288904208DA3E4A12884FF6EE
:103C0000FF739A1A0244521C91B203E0394A128897
:103C1000821A91B2374A10803A4A12680A44394BE4
:103C20001A60314A2F4B1B8832F81320354B1B6822
:103C30009A1A344B1A602C4A2A4B1B8822F813100C
:103C4000304A1268B2F5803F04D34FF6FF722B4B17
:103C50001A8003E02B4A1288284B1A80204A0C3223
:103C60001088254A1288904208DA234A12884FF6B3
:103C7000FF739A1A0244521C91B203E01E4A128842
:103C8000821A91B21C4A10801F4A12680A441E4BC5
:103C90001A60164A134B1B8832F813201A4B1B6804
:103CA0009A1A194B1A60114A0E4B1B8822F81310EE
:103CB000154A1268B2F5803F04D34FF6FF72104BDD
:103CC0001A8003E0104A12880D4B1A8070470B4887
:103CD000008870470A480088704700001834014087
:103CE000182C014038010020A8130020D013002018
:103CF0003A0100203C010020440100203E01002048
:103D000046010020400100204801002010B5082095
:103D1000FE4908807020FD49183108800320FB49C6
:103D2000203108802320F949283108804FF47A7027
:103D3000091D08804010F549343108800120F349FD
:103D40000C3108800820C10608804FF4E040088349
:103D500030200884232008854FF47A70888540102D
:103D60000887012088818202E949EA4800F000FAC8
:103D70004FF48062E649E84800F0FAF9E548E7497F
:103D80000860E5484860002088814FF48062E4497B
:103D9000E44800F0EDF9E348E34908600020888139
:103DA00010BD2DE9FE4F05460E4617469846DDE943
:103DB0000EA4DDF83090D948808910B10020BDE80C
:103DC000FE8FD248008820F00100D04908800EB94B
:103DD0000120F4E7CDE901A900942A463146CD48F7
:103DE0000D9B00F0CBF910B1CA4800F0FDF96F202F
:103DF000FFF724F909EB8901490091FBF0F01FFA64
:103E000080FB8DE8100C2A463146C3480D9B00F01C
:103E1000B5F910B1C04800F0E7F900BFBD4800F0A7
:103E2000E6F90028FAD000BFBB4800F0E0F900280E
:103E3000FAD0BA48C7820482A0F818800120B74996
:103E40008881084600F03FFB0020B44908625020FA
:103E5000AE492C3108802820AC4934310880AB4968
:103E6000403108800020A94924310880A7480088F3
:103E700040F00100A54908800020A44910310880C5
:103E800001209CE7A548006A70470020A34908620A
:103E90007047A248808A08B1012070470020FCE7E3
:103EA0009E494882704702469C48808908B100209C
:103EB00070470020994B98601A83184641839348B5
:103EC000008820F00100914B188090482C30018030
:103ED000008840108D4B3433188006208F4B98811A
:103EE00000208A4B243318808848008840F0010065
:103EF000864B18800020854B103318800120D7E7AF
:103F00008248008820F001008049088000207F4915
:103F1000103108808149888170478048007B704754
:103F20007E48808B704700207C498883704710B59D
:103F300000207649103108807848808918B3774886
:103F4000408B401E71492C3108807448408B5028AA
:103F500006DD7248408B28386C493431088007E010
:103F60006E49488B00EBD0714910684A3432118099
:103F70006A48808B401C694988836448008840F007
:103F8000010062490880634800F031F9624800F09E
:103F90002EF9624800F097FA6048006A401C5F49B9
:103FA000086210BD2DE9FE4F04460D4616461F4619
:103FB000DDE90DABDDF83090DDF83C805A488089B2
:103FC00010B10020BDE8FE8F4FF08040008820F047
:103FD00001004FF0804108800DB90120F2E75346FF
:103FE000224629464F48CDE901B9CDF8008000F0BE
:103FF000C5F810B14B4800F0F7F800BF494800F091
:10400000F6F80028FAD04848C682A0F81080078346
:10401000012045498881084600F0CAF950208106F0
:10402000888528200887002088840846008840F07A
:1040300001000880002008820120C3E73A48808AF6
:1040400008B1012070470020FCE7374948827047DB
:1040500002463548808908B1002070470020324B65
:1040600098601A83184641834FF08040008820F002
:1040700001004FF08043188018468185808D4010E4
:1040800018870620284B988100204FF080439884A1
:104090001846008840F00100188000201882012096
:1040A000DBE74FF08040008820F001004FF08041B6
:1040B0000880002008821C49888170471A48007BCC
:1040C000704710B500204FF0804108821648808963
:1040D00060B31548408B401E88851348408B50289C
:1040E00004DD1148408B2838088707E00E49488BCB
:1040F00000EBD07149104FF0804211874FF08040A3
:10410000008840F001004FF0804110E0000C0040BA
:1041100068140020F813002030140020681C0020D0
:10412000C81C0020901C0020C824002000E008804B
:10413000034800F05CF8034800F03AF910BD0000B5
:10414000901C0020C82400200146072900D3062126
:10415000064850F8310070470146072900D3062170
:10416000024800EBC10080887047000020B50108BC
:1041700010B50346586959611A8310BD2DE9F05FE7
:1041800004460D4616461F46DDE90B9ADDF82880E9
:104190004FF0000BE088B0420ED12069A8420BD14D
:1041A0006089B84208D1A089404505D12089484599
:1041B00002D1E089504501D04FF0010BE680256126
:1041C0006781A4F80C80A4F80890A4F80EA0E088F9
:1041D000FFF7BAFF2060E088FFF7BEFFA080002055
:1041E00060635846BDE8F09F01214185704770B576
:1041F0000146486B401C4863488D012806D00328BF
:1042000040D004284FD0052837D199E000200884F9
:10421000C86188850885088AC8850869086348894F
:104220008D89A84204DD488948848889888403E010
:104230008889488448898884488C4D692880012071
:10424000C88400228888401E83B29C1000BF086882
:1042500030F814004D8CA84201DB224600E02346D2
:10426000D0184410501C8342F1DC086830F8130069
:104270004D8CA84202DD0520488591E00C84032086
:10428000488500BF488C8D8CA84203DD088D401CFA
:10429000088507E048898D89A84201DC088D88855A
:1042A0000420488500BF4D8CCE89C86905FB0600F7
:1042B000C861088CCD6900EBD5300884888BC0F3C9
:1042C0000E00C861088C401C8D88A84208DB8888D5
:1042D000401E0D6835F810004884052048851AE016
:1042E0000D8C086830F81520088C401C0D6835F8D6
:1042F00010309A4206DBD01ACD696843A2EBD03069
:10430000488400E04A84488C0D89A84203DA088971
:104310004884052048854D8CCE8C701CC884486923
:1043200020F81650C88C0D8BA84206DA0D8DC88C6B
:10433000C5EB40000D69A84201D3052048852FE058
:1043400048898D89A84214DD00208885C88CC885DD
:104350000D8D08692844401C0863CD8C086BA84269
:1043600004D9CD8C086B401B086316E0002008635D
:1043700013E0088D8885C88C0D8D401BC8850869A1
:10438000401C0863CD8C086BA84204D9CD8C086B07
:10439000401B086301E0002008630620488500BF39
:1043A00000BF488D042801DB012070BD0020FCE720
:1043B0008168491C8160818907297AD2DFE801F090
:1043C0007904132E3C5B7200002141820168898DC3
:1043D000491CC18101684989418302218160818131
:1043E0000021818265E001684969C28931F81210B3
:1043F00041830268D28D816891420BD30168C98DD7
:104400000268126B914202D90421818105E00321E7
:10441000818102E0C189491CC1814AE00168496982
:10442000C28931F81210418302688168126B91428F
:1044300001D3042181813CE0C18911B1C189491EA8
:10444000C18101684969C28931F81210418302684B
:104450008168126991420DD3016889894183C18ABB
:1044600021B906218181018B816003E005218181D1
:10447000002181601DE0018A4183C28A81689142E6
:104480000BD8418A69B1018B21B1062181810021BC
:10449000816006E00021818103E001218182002109
:1044A000818106E0028B8168914201D900218181DE
:1044B00000BF00BF418B02681289914202DA016895
:1044C00009894183704710B50446A068401CA0606C
:1044D000A089082813D2DFE800F0AC04132E3C7149
:1044E0009763002060822068808D401CE0812068F6
:1044F000408960830220A060A0810020A08298E013
:1045000020684069E18930F8110060832168C98D15
:10451000A06888420BD32068C08D2168096B88424F
:1045200002D90420A08105E00320A08102E0E089F7
:10453000401CE0817DE020684069E18930F811008D
:1045400060832168A068096B884201D30420A081A0
:104550006FE0E08910B1E089401EE0816068406949
:10456000E18930F811006083D4E9011009698842BB
:1045700015D3606880896083E08A20B90620A08115
:10458000208BA0600BE00020A060A0843220FEF70A
:1045900055FD10B90520A08101E00720A08148E069
:1045A000A08C401CA0846E20FEF748FDA18C8842A0
:1045B00003DA0020A0840520A0813AE0208A6083ED
:1045C000E18AA068884214D8608AE0B1208B20B1CB
:1045D0000620A0810020A06001E00020A081012031
:1045E000194908708020FEF7FCFC0220174908706A
:1045F00009E00120A0820020A0818020FEF7F1FCCC
:1046000002201249087014E011480078012803D0F4
:104610000F480078022805D18020FEF7E2FC022036
:104620000A490870218BA068884201D90020A08126
:1046300000BF00BF608B21680989884202DA2068C8
:104640000089608310BD0000F3000020C30000203B
:10465000C000002070B50246FF24FF25B1F57A7F27
:1046600001DD4FF47A7109E012F8010B80EA0403CE
:104670000648C05C80EA05040548C55C081EA1F137
:104680000106B1B2F0D145EA042070BD58B5010869
:1046900058B601080246FF2901DB002070479088C8
:1046A0000844401C136833F81000F7E701468A8875
:1046B000086830F81200704710B50A4602604FF4DF
:1046C00080710AE0036833F811304FF6FF74A3429B
:1046D00000D105E001F5807399B2B1F5806FF1DB8F
:1046E00000BFA1F5807383800123C38010BD70B526
:1046F0000446A188206830F811504FF6FF708542BB
:1047000001D1002505E04FF6FE70854201DA681CF4
:1047100085B2352001F0F2FCA08800F58070B0F57C
:10472000806F05DB206801F0C1FA0020A08003E063
:10473000A08800F58070A0800120E080A188226818
:1047400002EB4100294601F079FB70BD70B50446CB
:104750000D46E088FF2800DB70BD352001F0CEFC5F
:10476000A188E2881144226802EB4100294601F049
:1047700065FBE088401CE08000BFEDE700B587B036
:1047800001214FF4047002F031F84FF4004001F0C1
:1047900091FF0320ADF8040000208DF8070001A967
:1047A0002F4801F017FD2F4800F02CFF0020029049
:1047B0008DF80C008DF80D004FF46020049000205F
:1047C000059001208DF8180002A9264800F041FF4D
:1047D0000121244800F069FF224800F088FF00BF53
:1047E000204800F089FF0028FAD11E4800F08EFF13
:1047F00000BF1C4800F08FFF0028FAD107B000BDB1
:1048000010B50446062301222146164800F0B9FFE0
:104810000121144800F089FF10BD10B50221114894
:1048200001F0F4F818B10F4801F012F810BD7B2028
:10483000FCE710B50446072301222146094800F091
:10484000A0FF0121074800F070FF00BF02210548CA
:1048500001F0DCF80028F9D0024800F0F9FF10BDA3
:10486000001001400024014000B585B04FF496408F
:1048700000900020ADF80400ADF80600ADF8080087
:10488000ADF80C000C20ADF80A006946FE4802F0B5
:10489000C4FE40F22551FC4803F034F8012240F2F6
:1048A0002551F94802F036FF26208DF8100003202C
:1048B0008DF8110004208DF8120001208DF81300EE
:1048C00004A800F036FE0121EF4802F017FF4FF474
:1048D0000040EE4908600121EB4802F00FFF05B0EF
:1048E00000BD70B540F22551E74802F0E1FFF0B19C
:1048F0000721E54802F0C6FF08B1012400E00024CA
:10490000E14802F06CFFC5B2E148008840F2FF7157
:1049100088420CDA5CB9DF48DD4909884554DC4837
:104920000088401CDA4908800020DB49087070BD0F
:1049300070B504460D464FF40040D44908600BE0C2
:1049400000BF8021D04802F09DFF0028F9D014F864
:10495000011BCD4802F03FFF281EA5F10101CDB299
:10496000EED100BF4021C84802F08CFF0028F9D0EA
:104970000120CA490870C003C449091D086001200C
:10498000C749087070BDC4480078401CC24908700F
:1049900008460078322809DDC1480078012802D194
:1049A0000220BF4908700020BB490870704710B54D
:1049B0000120BC490870062048700020887024201F
:1049C000C8700020087148710621B648FFF742FE02
:1049D0000446200AB3498871CC710821B148FFF719
:1049E000A7FF10BD2DE9F04106460C461546AD481F
:1049F00006700120AB49487020128870CC702812D4
:104A000008714D710621A748FFF724FE0746380AB2
:104A1000A4498871CF710821A248FFF789FFBDE83A
:104A2000F0812DE9F04106460C4615469D4806707A
:104A300002209C49487020128870CC70281208719E
:104A40004D7106219748FFF705FE0746380A95493C
:104A50008871CF7108219348FFF76AFFBDE8F081A4
:104A60002DE9F04106460C4615468E480670032097
:104A70008C49487020128870CC70281208714D71D2
:104A800006218848FFF7E6FD0746380A8549887100
:104A9000CF7108218348FFF74BFFBDE8F0812DE976
:104AA000F04106460C4615467E48067004207D49B6
:104AB000487020128870CC70281208714D71062140
:104AC0007848FFF7C7FD0746380A76498871CF71E5
:104AD00008217448FFF72CFFBDE8F0812DE9F04173
:104AE00007460C469046B8F1010F1FD16E4830F8CA
:104AF000140010B14FF47F4500E0002569480770AD
:104B000005206849487020128870CC7028120871FE
:104B10004D7106216348FFF79DFD0646300A614945
:104B20008871CE7108215F48FFF702FFBDE8F08170
:104B30002DE9F04106460C461746012F1DD1594874
:104B4000067006205749487020128870CC7057486C
:104B500030F8140000120871544810F8140048711D
:104B600006215048FFF776FD0546280A4D49887111
:104B7000CD7108214B48FFF7DBFEBDE8F0812DE940
:104B8000F04781460F4615467819642873DA28469F
:104B9000E91705EB5171C1F3CF06E91705EB517128
:104BA000C910A5EBC10109B1701C86B2002460E0F8
:104BB000E11704EB5171C910A4EBC10141B9002206
:104BC0002046E11704EB5171C910C91D354B5A54E9
:104BD0002046E21704EB5272D210D21D314B9A5C80
:104BE00053102146E21704EB5272D210D21DDFF8A7
:104BF000B4C00CF8023038192B4931F8100088B1D4
:104C00002046E21704EB5272D210D21D63469A5C22
:104C100042F080032146E21704EB5272D210D21DFB
:104C20000CF80230681EA04221D1E91705EB517142
:104C3000C910A5EBC101D1B1E21704EB5272D21039
:104C4000D21D184B9A5C2946EB1705EB5373DB100A
:104C5000A5EBC303C3F108031A412046E31704EB95
:104C60005373DB10DB1DDFF83CC00CF80320601C25
:104C700084B2AC429CDB0B4880F800900F200949BD
:104C800048703812887013E000440040100801405A
:104C90005C010020BE360020500100206A01002087
:104CA0005E0100208637002016390020A63A002039
:104CB000CF70281208714D718E71F01D81B2FD48C0
:104CC000FFF7C8FC80464FEA1821F01DF94A11543D
:104CD000401C02F80080401CC1B21046FFF728FEBD
:104CE000BDE8F0872DE9F04180460E4614463019A4
:104CF000B0F57A7F17DA002513E07019EE4931F824
:104D000010000012072101EB4501EA4A50547019C6
:104D1000E94911F81000082101EB45015054681CC5
:104D2000C5B2A542E9DBE34880F800801020E149E4
:104D3000487030128870CE70201208714C71600675
:104D4000000E88716000C01D81B2DA48FFF782FC56
:104D50000746390A6000C01DD64A11546000083069
:104D6000175460000930C1B21046FFF7E1FDBDE8FD
:104D7000F0812DE9F04107460C4615461E46052CEC
:104D800020D006DC012C0BD0022C0FD0032C31D10B
:104D900012E0062C1CD00F2C20D0102C2AD123E09E
:104DA000324629463846FFF71DFE23E032462946A3
:104DB0003846FFF736FE1DE0324629463846FFF7F3
:104DC0004FFE17E0324629463846FFF787FE11E0CE
:104DD000324629463846FFF7ABFE0BE032462946FD
:104DE0003846FFF7CCFE05E0324629463846FFF745
:104DF00079FF00BF00BFBDE8F08110B50122114668
:104E00001046FFF72DFE10BD10B5AC490988AC4A1D
:104E10001288114464292ADA002020E00146C217D2
:104E200000EB5272D210D21CA64B9A5C02F0010227
:104E3000A24B1B880344A44C24F81320C21700EB98
:104E40005272D210D21C9F4B9A5C5310C21700EBC7
:104E50005272D210D21C9B4CA354411C88B2984968
:104E600009888842DADB0021984A117002E00121AA
:104E7000964A11700021964A117010BD10B58F49E5
:104E800009888F4A1288114464292ADA002020E018
:104E90000146C21700EB5272D210D21C894B9A5CA9
:104EA00002F00102854B1B8803448A4C24F813202E
:104EB000C21700EB5272D210D21C824B9A5C531074
:104EC000C21700EB5272D210D21C7E4CA354411C6C
:104ED00088B27B4909888842DADB00217B4A11705D
:104EE00002E00221794A11700021794A117010BD47
:104EF00010B5744B9A7802EBD27359106F4A12882E
:104F00000A44B2F57A7F25DA00201DE0032202EB85
:104F100040026C4B9A5C694B1B8803446E4C24F82E
:104F20001320042202EB4002664B9A5C634B1B8801
:104F3000034414F8133002EB0322604B1B88034434
:104F400024F81320421CD0B28842DFDB00225F4BE2
:104F50001A7002E003225D4B1A7000225C4B1A703B
:104F600010BD57490888002806DD56490979FF29F0
:104F700002D15449497931B148B95249097931B915
:104F80005049497919B90021504A117002E00521B0
:104F90004E4A117000214E4A1170704749494979B3
:104FA000484A127941EA02204349444A128831F8BA
:104FB0001210814203D10021444A117002E00621FF
:104FC000424A11700021424A117070473D494979A7
:104FD0003C4A127941EA022039490988884203D1C2
:104FE00000213A4A117002E00F21384A1170002165
:104FF000374A1170704733494979324A127941EA88
:1050000002202F490988884203D100212F4A1170BC
:1050100002E010212D4A117000212D4A11707047B5
:1050200070B52E480078022871D1264800782C49A6
:10503000097888426CD123484078012817D021484C
:105040004078022813D01F48407803280FD01D480D
:10505000407805280BD01B484078062807D019480F
:1050600040780F2803D01748407810285FD11D489A
:105070000088801E81B21348FFF7ECFA04461948F5
:105080000088401E0F49095C16480088801E0D4AA2
:10509000105C41EA0025AC4245D110464078052815
:1050A0002FD021DC012829D0022824D0032839D18F
:1050B0002FE0000086370020A63A0020660100207D
:1050C00068010020BE360020163900206B01002048
:1050D0006A0100204E380020DE3900205E010020E9
:1050E000630100205C010020062815D00F280BD09A
:1050F000102817D113E0FFF7C1FE13E0FFF784FE7D
:1051000010E0FFF72EFF0DE0FFF760FF0AE055E02B
:1051100048E0FFF7EDFE05E0FFF740FF02E0FFF794
:105120006AFF00BF3EE00E20374908703AE037487A
:105130004078812817D035484078822813D03348EA
:10514000407883280FD03148407885280BD02F48ED
:105150004078862807D02D4840788F2803D02B48E8
:10516000407890281ED129488078012806D002284E
:1051700008D003280AD0042810D10BE00B202249C4
:1051800008700BE00C202049087007E00D201E4934
:10519000087003E00E201C49087000BF00BF00200B
:1051A0001B49087000201B4908701B4908804FF4F8
:1051B00000401A49086000201549087070BD10B5FC
:1051C0001748007806281DD2DFE800F0030F101101
:1051D000171B01222A211046FFF742FC0320104929
:1051E000087000200F4908700CE00BE00AE0FFF7A0
:1051F00017FF04200A49087004E0002008490870DD
:1052000000E000BF00BF10BD6B010020BE360020D3
:105210006A0100205E0100205C01002010080140AE
:105220004D0100205001002000B585B04FF496409C
:1052300000900020ADF80400ADF80600ADF80800BD
:10524000ADF80C000C20ADF80A006946264802F0C3
:10525000E4F940F22551244802F054FB012240F2C7
:105260002551214802F056FA34208DF81000032011
:105270008DF8110005208DF8120001208DF8130023
:1052800004A800F056F90121174802F037FA4FF44C
:1052900080501649086105B000BD704770B50446DE
:1052A0000D464FF48050114908610BE000BF80218A
:1052B0000F4802F0E7FA0028F9D014F8011B0C4857
:1052C00002F089FA281EA5F10101CDB2EED100BF8E
:1052D0004021054802F0D6FA0028F9D04FF480505A
:1052E0000249486170BD0000004C004000100140C0
:1052F000004400401FB50020009001900220039060
:105300006946002000F0B1FB6946102000F0ADFBBB
:105310000021084600F027FC0021084600F030FC80
:1053200000201E4908801E490880012100F0BAFBB8
:105330000121102000F0B6FB1FBD10B5044640F659
:105340008270604340F6FF7190FBF1F014490880D1
:1053500008460088B0F5805F02DB40F6FF700880E9
:105360000F480188002000F0FEFB10BD10B5044678
:105370000A4804800088B0F5805F03DB40F6FF70C8
:105380000649088005480188002000F0F9FB10BD9F
:10539000034800887047014800887047700100206A
:1053A0006E0100200CB50020019000904748006875
:1053B00040F480304549086000BF4448006800F46C
:1053C000003000900198401C0190009818B9019895
:1053D000B0F5A06FF1D13D48006800F4003010B185
:1053E0000120009001E0002000900098012842D1A7
:1053F0003748006840F010003549086008460068EA
:1054000020F0030008600846006840F001000860D2
:105410002E4840682D494860084640684860084664
:10542000406848600846406820F47C1048600846A0
:10543000406840F4F81048600846006840F080700A
:10544000086000BF2148006800F000700028F9D013
:105450001E48406820F003001C4948600846406828
:1054600040F00200486000BF1848406800F00C009F
:105470000828F9D101E000BFFEE70CBD10B5FFF729
:1054800091FF10BD10B51148006840F001000F49B0
:105490000860084640680F4908400C4948600846C3
:1054A00000680D490840094908600846006820F472
:1054B000802008600846406820F4FE0048604FF4F1
:1054C0001F008860FFF7DAFF10BD000000100240E7
:1054D000002002400000FFF8FFFFF6FE70470B4877
:1054E00080470B4981F308880A480047FEE7FEE73A
:1054F000FEE7FEE7FEE7FEE7FEE7FEE7FEE7FEE784
:1055000005480649064A074B70470000DD5400086D
:105510001045002031010008103D002010450020FA
:10552000104100201041002031490143314A1160EF
:10553000704770B5002100230F22C47804B32D4CAE
:10554000246804F4E064C4F5E064210AC1F10403B2
:10555000CA40447804FA03F18478144021430901D5
:10556000254C0678A155047804F01F050124AC40B1
:1055700005786D11AD0005F1E025C5F8004109E0A1
:10558000047804F01F050124AC401C4D0678761108
:1055900045F8264070BD1A4A0A400243154B1B1FAE
:1055A0001A60704739B1134A121D12680243114B39
:1055B0001B1D1A6006E00F4A121D126882430D4B34
:1055C0001B1D1A607047042808D14FF0E0210969BB
:1055D00041F004014FF0E022116107E04FF0E021BB
:1055E000096921F004014FF0E022116170470000C9
:1055F0000000FA050CED00E000E400E080E100E0CE
:1056000080FFFF1F10B50446FA48844208D10121EB
:10561000401501F005F90021601501F001F917E0CE
:10562000F548844208D10121001501F0F9F8002164
:10563000201501F0F5F80BE0F048844208D1012173
:10564000C80301F0EDF800214FF4004001F0E8F844
:1056500010BD30B50246002000235068E84C2040C1
:105660000D790C6844EA0524204350609068E54CAD
:105670002040D1E902542C434D7944EA45042043AB
:105680009060D06A20F470000C7C641EE4B2234366
:1056900040EA0350D06230BD0021016001714171C8
:1056A0008160C16001210174704721B1826842F0BC
:1056B0000102826003E0826822F00102826070478A
:1056C00021B1826842F48072826003E0826822F431
:1056D00080728260704710B50023CBB21AB1446863
:1056E0001C43446002E044689C43446010BD8168F0
:1056F00041F0080181607047014600208A6802F08D
:1057000008020AB1012000E000207047816841F0E2
:10571000040181607047014600208A6802F004029B
:105720000AB1012000E00020704721B1826842F4F4
:10573000A002826003E0826822F4A00282607047C7
:10574000014600208A6802F480020AB1012000E0CC
:105750000020704710B50A4600210023416821F45B
:105760006041531E41EA4331416010BD21B142689E
:1057700042F40062426003E0426822F40062426048
:105780007047F0B504460D4600200021092D11DDBB
:10579000E068A5F10A0606EB4607072606FA07F1B8
:1057A0008843A5F10A0606EB460603FA06F108430C
:1057B000E0600CE0206905EB4507072606FA07F1D3
:1057C000884305EB450603FA06F108432061072AE2
:1057D0000FDA606B561E06EB86071F2606FA07F1E6
:1057E0008843561E06EB860605FA06F108436063F9
:1057F00022E00D2A0FDA206BD61F06EB86071F2644
:1058000006FA07F18843D61F06EB860605FA06F16D
:105810000843206310E0E06AA2F10D0606EB86075C
:105820001F2606FA07F18843A2F10D0606EB86064D
:1058300005FA06F10843E062F0BD21B1826842F446
:105840008012826003E0826822F4801282607047D6
:105850000146C86C80B2704766484C30006870479B
:1058600021B1426842F48062426003E0426822F45F
:1058700080624260704721B1426842F480524260C7
:1058800003E0426822F48052426070470A460021D9
:10589000816821F4E04111438160704721B1826841
:1058A00042F40042826003E0826822F40042826097
:1058B000704721B1826842F40212826003E082687C
:1058C00022F4021282607047014600208A6802F4C6
:1058D00000120AB1012000E000207047F0B5044634
:1058E0001546002000220026092911DDE068A1F1FB
:1058F0000A0707EB470C072707FA0CF29043A1F1C0
:105900000A0707EB470703FA07F21043E0600CE0D1
:10591000206901EB410C072707FA0CF2904301EBD9
:10592000410703FA07F210432061A06BC0F3015650
:10593000EF1C06F1010CA7EB0C0707EB870C1F27E8
:1059400007FA0CF29043EF1C06F1010CA7EB0C07D1
:1059500007EB870701FA07F21043A063F0BD10B50B
:105960000A4600210023816B21F44011531E41EAB5
:105970000351816310BD08B5002300930090009B84
:105980000B440093009B1A6008BD08B50246002036
:105990000090009201F12800009B184400900098AC
:1059A000006880B208BD0A4600214168164B1940C4
:1059B0001143416070474162826270470A4600218C
:1059C000416821F01F0111434160704740B109490E
:1059D0000831096841F40001064A0832116007E005
:1059E00004490831096821F40001024A08321160B3
:1059F000704700000024014000280140003C0140A5
:105A0000FFFEF0FFFDF7F1FFFFFD3FFF0246002024
:105A100013680B400BB1012000E000207047CA431F
:105A20000260704770B502460020002300240B126C
:105A30005568CEB205EA060415681D4015B10CB1D3
:105A4000012000E0002070BD00220A12D343036051
:105A50007047000010B50121480700F0EEFE00215C
:105A60004FF0005000F0E9FE10BD30B500220023D9
:105A70005A4C226840F6FE748440A243D1E90045A6
:105A80002C438D682C43CD6844EA050303FA00F4E7
:105A90002243524C226030BD002101604160816090
:105AA000C160704739B14D4A1268012383401A43DF
:105AB0004A4B1A6006E0494A1268012383409A4320
:105AC000464B1A60704741B1444A12684FF4805304
:105AD00083401A43414B1A6007E0404A12684FF472
