:020000040800F2
:1000000000040020AF3A00080502000807020008BB
:100010000B0200080F020008130200080000000095
:1000200000000000000000000000000017020008AF
:1000300019020008000000001B020008CD3A000869
:10004000CF3A0008CF3A0008CF3A0008CF3A00086C
:10005000CF3A0008CF3A0008CF3A0008CF3A00085C
:10006000CF3A0008CF3A0008CF3A0008CF3A00084C
:10007000CF3A0008CF3A0008CF3A0008CF3A00083C
:10008000CF3A0008CF3A0008CF3A0008CF3A00082C
:10009000CF3A0008CF3A0008CF3A0008CF3A00081C
:1000A000CF3A0008CF3A0008CF3A0008CF3A00080C
:1000B000F1260008CF3A0008CF3A0008CF3A0008EE
:1000C000CF3A0008CF3A0008CF3A0008CF3A0008EC
:1000D000CF3A00089D1800088B2E0008CF3A000880
:1000E000CF3A0008CF3A0008CF3A0008CF3A0008CC
:1000F000CF3A0008CF3A0008CF3A0008CF3A0008BC
:10010000CF3A0008CF3A00086D250008CF3A000822
:1001100043380008CF3A0008AB1300081D19000847
:10012000CF3A0008CF3A0008CF3A0008CF3A00088B
:1001300000F002F800F03CF80AA090E8000C8244BD
:100140008344AAF10107DA4501D100F031F8AFF29A
:10015000090EBAE80F0013F0010F18BFFB1A43F0A5
:1001600001031847C8790000E8790000103A24BF5D
:1001700078C878C1FAD8520724BF30C830C144BF0C
:1001800004680C607047000000230024002500264E
:10019000103A28BF78C1FBD8520728BF30C148BFEA
:1001A0000B6070471FB507F0DCF81FBD10B510BD20
:1001B00007F0ADF91146FFF7F5FF00F07FF907F002
:1001C000CBF903B4FFF7F2FF03BC07F0D5F9000049
:1001D0000B49D1F800C04A685CF8043B1068184429
:1001E00042F8040B8C4528BFA1F1DC0C8A4228BFE1
:1001F000A1F1DC02C1F800C04A6020F00040704765
:10020000403C0020704700BFFEE700BFFEE700BF94
:10021000FEE700BFFEE770477047704708B5012151
:10022000BB4804F090FB4FF4A160ADF800004820FB
:100230008DF803006946B74804F0B4FA4FF4017032
:10024000ADF8000018208DF8030003208DF802009F
:100250006946B04804F0A6FA4FF40040ADF800003B
:1002600010208DF8030003208DF802006946A9488C
:1002700004F098FAC020ADF8000014208DF80300B7
:1002800003208DF802006946A24804F08BFA302062
:10029000ADF8000003208DF8020010208DF8030057
:1002A00069469C4804F07EFA0120ADF80000182051
:1002B0008DF8030003208DF802006946954804F08C
:1002C00071FA0220ADF8000010208DF80300032021
:1002D0008DF8020069468F4804F064FA47F603403F
:1002E000ADF8000014208DF8030003208DF8020003
:1002F0006946894804F056FA4FF44E70ADF8000094
:1003000048208DF803006946834804F04BFA3420F6
:10031000ADF8000014208DF8030003208DF80200D2
:1003200069467E4804F03EFA4FF4F250ADF8000002
:1003300048208DF803006946784804F033FA042019
:10034000ADF8000048208DF803006946744804F0B9
:1003500029FA08BD08B54FF4C06003F0CDFB0021B9
:100360004FF0006003F0FFFB36208DF80000012005
:100370008DF8010000208DF8020001208DF80300A7
:10038000684603F0BEFB19208DF8000000208DF8B0
:1003900001008DF8020001208DF80300684603F08B
:1003A000B0FB1B208DF8000000208DF801008DF8B7
:1003B000020001208DF80300684603F0A2FB322002
:1003C0008DF8000000208DF801008DF8020001205A
:1003D0008DF80300684603F094FB08BD10B503F0E8
:1003E00039FB012146F63D0004F0E8FC01214D48AF
:1003F00004F0F1FC0121080204F0D3FC10BD10B59B
:10040000FFF7ECFFFFF70AFFFFF7A4FF00F0B0FFD4
:1004100003F044FA02F0FCFC02F084FC05F098FFC3
:1004200000F0AEF940484FF0E0214861012008613A
:1004300010BD10B500212A2001F03BF900211F203A
:1004400001F037F90021202001F033F900212120AB
:1004500001F02FF90021222001F02BF93221252073
:1004600001F027F96421262001F023F90A21232035
:1004700001F01FF90021242001F01BF9642127203D
:1004800001F017F9C821282001F013F9642129206F
:1004900001F00FF940F6B831652001F00AF9142196
:1004A000902001F006F900218C2001F002F90021D2
:1004B000532001F019F900F00BFB10BD00F0B3F868
:1004C0003C2001F0FCF828B1FFF7B3FF00213C20ED
:1004D00001F00AF900F05DFFFFF791FF62B615E049
:1004E0004FF0E020006900F4803008B1601CC4B215
:1004F00086EA0405264600F019F800F055F801F0E8
:1005000068FD05F0010008B100F0A4F8E8E700007C
:100510000002300000080140000C014000100140C2
:10052000001401401F400E38905F01002DE908487B
:100530004FF0000BCDF800B0DFF8A0B0ABF800A092
:10054000DFF89CB0ABF80000DFF898B0ABF8001013
:10055000DFF894B0ABF80020DFF890B0ABF80030D3
:10056000DFF88CB0ABF80060DFF888B0ABF8007053
:10057000DFF884B0ABF800C0DFF880B0ABF80080E3
:10058000DFF87CB0ABF80090DFF878B0ABF8005043
:10059000DFF874B0ABF800404FF0010BDFF86CE00F
:1005A0008EF800B0BDE8088870B5902001F078F8AA
:1005B00005468C2001F074F8A8420ED0652001F0A9
:1005C0006FF804462CB1601E84B22146652001F00C
:1005D00070F829468C2001F06CF870BD1C000020DA
:1005E000180000201A000020220000201600002021
:1005F0002400002026000020280000202A000020DF
:100600002C0000202E0000203000002005000020DB
:1006100001205349087070475248007810B90120F2
:1006200050490870704710B54F49504802F018FB08
:100630004F49504802F014FB032408E021464B4880
:1006400002F0FCFA4C4921F81400601C84B2FF2C23
:10065000F4DD10BD70B5002500F09FFE00F0A1FE96
:100660003F48007820B10020444908803C49087088
:100670003C480078012805D100204049088002202C
:10068000384908703D480088002833D101F064FFE4
:1006900000282FD102F029F860BB45F6C050374939
:1006A000088003240CE02146304802F0C7FA3249A2
:1006B00031F81410884201D0012503E0601C84B297
:1006C000FF2CF0DD00BFD5B103F091FD274802F00B
:1006D000E2FA72B6002407E0274830F814102348E5
:1006E00002F008FB601C84B2FF2CF5DD62B603F05B
:1006F00084FD04E021480088401E2049088000F065
:100700004CFE00F04EFE70BD10B503F070FD1948B0
:1007100002F0C1FA72B6002407E0174830F814104E
:10072000144802F0E7FA601C84B2FF2CF5DD62B6D3
:1007300003F063FD10BD10B5002408E021460D480C
:1007400002F07CFA0C4921F81400601C84B2FF2CE2
:10075000F4DD00200849088048808880C88010BDEA
:10076000340000203500002000E00108380000209F
:1007700000E8010840000020400100203600002071
:1007800010B5012004F057F9012004F084FA0BE0C1
:10079000C4480068401CC349086008460068C24954
:1007A000884201D3012010BD412004F0DCF900286B
:1007B000EED04FF4807004F08AFA012004F08DFA34
:1007C00004F0C5FB04F0BAFB04F0B8FB47F6FF7079
:1007D00004F08EFB04F0B2FB0020E4E700220A7074
:1007E000B24ACA6004E0B24A801A0A78121D0A703E
:1007F000AF4A9042F7D2AF4A90420ED9801A0A7897
:10080000521C0A70AC4ACA6004E0AC4A801A0A78EA
:10081000521C0A70A94A9042F7D800224A7010E090
:10082000CB685A1CCA601A78A54B5A438A608A68FA
:10083000824202D88A68801A00E005E04A78521C99
:100840004A704A780C2AEBDB00BF9D4AB0FBF2F2FB
:100850008A709B4AB0FBF2F302FB13004FF4616213
:10086000B0FBF2F2CA704FF46162B0FBF2F302FB2C
:1008700013003C22B0FBF2F20A713C22B0FBF2F30F
:1008800002FB13024A71704710B58E4800688E490A
:10089000096844188D492046FFF7A0FF10BD0346A4
:1008A0000C2901DD1E207047834A002000B17F4AD9
:1008B000505CF8E710B504F005FB83490860FFF7CA
:1008C000E3FF10BD00B581480079401C7F490871E5
:1008D000084600793C282BDB084600793C38087133
:1008E0000846C078401CC8700846C07818281FDB2E
:1008F0000020C87008468078401C88700A465178ED
:100900001078FFF7CCFF71498978884210DC00200D
:100910006E49887008464078401C48700846407808
:100920000C2805DB0020487008460078401C087041
:1009300000BD70B504F0C6FA0446634800688442FE
:100940001AD061480068251A5F480460B42D02D9A6
:10095000FFF79AFF10E05D48407928445B494871F1
:1009600006E05A4840793C3858494871FFF7AAFFD9
:10097000564840793C28F4DA70BD2DE9F04304462E
:100980000D461E46DDE9077C002006E0DFF82081E9
:100990004044A4F1040808F0FF04042CF6DA4349AB
:1009A000002C11DDDFF80C8140444349A4F101081B
:1009B00008F0FF0406E0DFF804814044A4F10108D8
:1009C00008F0FF04002CF6DC00230BE011F8018B8B
:1009D00040F2A32908FB09F800EBC81003F1010855
:1009E00008F0FF03AB42F1DB91F80080904500DC9A
:1009F0000A7840F2A32802FB08F800EBC810C6EB07
:100A00004618C8EB062800EB0810C7EB071800EBE8
:100A100088006044BDE8F0832DE9FC4704460D469C
:100A200016461F46DDE90A893B46324629462046DE
:100A3000CDE90089FFF7A1FF22490860002004F0FA
:100A40004AFA002020490860FFF71EFF1D48006891
:100A5000BDE8FC871B4800681B49096808447047CB
:100A60001A480078704719484078704717488078CE
:100A700070471648C078704714480079704713488B
:100A80004079704730B505460C460E480560008831
:100A900000040C4908600846006820440860FFF71D
:100AA000F3FE30BD4800002060AE0A00B0750008BB
:100AB000801F86070085E201A47500088033E101EC
:100AC000805101004C00002050000020080100204F
:100AD0000020FE4908804880FD490870FB49888055
:100AE000C880FB49C87048710871C87108724872A3
:100AF0008872C87248708870F4490881F449887116
:100B000008734873704710B5002000F08DFD002178
:100B1000084600F0E9FD0021012000F0E5FD00217C
:100B2000022000F0E1FD00212A2000F0C2FD00209B
:100B3000E749C87208718870E4490881C880E449AF
:100B4000C8714871C870E1498880E149087008722D
:100B500048728872DD4908804880DE490870DE49A5
:100B60000870DE490870DE490870DE490870D8490F
:100B70004870FFF74DFDFFF7ABFF10BD70B50446A1
:100B80004FF4006000F047FD60B14FF4006000F0EA
:100B900039FD08B9012000E0002005462946022061
:100BA00000F0A2FD202000F036FD38B1202000F03A
:100BB00029FD18B90121084600F096FD102000F02B
:100BC00021FD00283BD1C2480078002837D12020E1
:100BD00000F018FD90B30120BD494871C87004F0C1
:100BE000100050B3B9488088401CB849888029203B
:100BF00000F056FDB5498988884229DA0020B449B9
:100C0000C870B2498880652000F04AFD20B90221F1
:100C10002A2000F04EFD1BE0B3480078012817D0D1
:100C20000120AB4908700020487101212A2000F002
:100C300040FD0121002000F057FD09E0FFE7A44836
:100C4000407928B10020A1498880A149C870487125
:100C500070BD2DE9F04104469D48007801287DD102
:100C60009B48407A20B1002099494872012088723F
:100C70009748407805287FD2DFE800F0031A394A08
:100C80005E00012000F0BEFC88B99148407A70B93E
:100C90008F48007B58B901208D490873042000F06B
:100CA000D2FC082000F0CFFC01208949487064E0A4
:100CB00004F01000D0B185480088401C83490880AA
:100CC000252000F0EDFC8149098888420EDA0020D9
:100CD0007E490880042000F0BCFC082000F0B9FC2C
:100CE000102000F0B0FC02207949487045E0012056
:100CF00000F088FC58B1042000F084FC38B91020C2
:100D000000F0A7FC0020724908730320487034E00B
:100D1000022000F077FC70B96D48407A58B96C48F1
:100D2000407B40B901206A494873202000F08BFCC9
:100D300004206749487020E004F01000D8B16348EF
:100D40004088401C61494880262000F0A9FC5F498A
:100D5000498888420FDA00205C4901E081E00BE01D
:100D60004880202000F075FC01205949C8720020FD
:100D700048730520487000E000BF00BF5448C07AA7
:100D800000286DD000205249C872212000F088FC54
:100D90000746202000F084FC4FF4803101FB0075F1
:100DA000532000F08CFC01280FD0082000F02AFC12
:100DB00058B16D1CA9B2212000F07BFC4FF6FF70EA
:100DC00000EA1541202000F074FC222000F068FCAD
:100DD0000646532000F073FC01280AD0082000F0DA
:100DE00011FC30B1701C80B206460146222000F092
:100DF00060FC232000F054FC0746242000F050FC47
:100E0000381AB04202DB3248C07910B101203049B3
:100E10000871232000F044FC8046222000F040FCB2
:100E20000746232000F03CFC874213DB232000F020
:100E300037FC78B10120264988700021222000F07B
:100E400038FC1F2000F02CFC401C87B239461F20C4
:100E500000F02FFC1E488078002801D11C49487002
:100E60007EE0082000F02BFC012806D1042000F0D1
:100E7000EAFB01201749087009E0164800780128AC
:100E800005D1002013490870042000F0E2FB09207E
:100E900000F015FC012806D1082000F0D4FB012049
:100EA0000D49087009E00C480078012805D10020A0
:100EB00009490870082000F0CCFB0A2000F0FFFB75
:100EC000012817D1102000F0BEFB0FE02601002002
:100ED0001801002072000020730000207400002020
:100EE0007500002076000020060100200120FE4948
:100EF000087009E0FC480078012805D10020FA4973
:100F00000870102000F0A5FB0B2000F0D8FB012892
:100F100006D1202000F097FB0120F449087009E079
:100F2000F2480078012805D10020F04908702020FF
:100F300000F08FFB0C2000F0C2FB012806D14020FE
:100F400000F081FB0120EA49087009E0E8480078D8
:100F5000012805D10020E6490870402000F079FB07
:100F6000E4488078012818D104F0100088B3E248E2
:100F70000089401CE0490881272000F091FBDE49F0
:100F80000989884225DA0020DB4908810220D949F5
:100F90008870402000F057FB1BE0D648807802287C
:100FA00017D104F01000A0B1D3480089401CD249E9
:100FB0000881282000F074FBCF490989884208DAAB
:100FC0000020CD490881CB4988704870402000F04E
:100FD00040FBC848807AF0B1C648007BD8B9C54804
:100FE000407BC0B9C348C07AA8B90021084600F0C8
:100FF0007BFB0021012000F077FB0021022000F0A4
:1010000073FB0020BB490872887208704870002189
:101010002A2000F04EFB532000F051FB18B90820A5
:1010200000F0F0FA38B90120B249C8710121372027
:1010300000F03FFB06E00020AE49C87100213720D8
:1010400000F037FBAB48007901280FD104F0100005
:1010500060B1A948C088401CA749C8800846C0881C
:10106000642803DD0020C880A2490871A148C07827
:1010700038B9A048007920B94FF4805000F0E9FA5F
:101080000BE09C48C078012803D09A4800790128D9
:1010900003D14FF4805000F0D6FABDE8F08110B5CE
:1010A0000446052000F00BFB58B10021052000F09C
:1010B0001BFB0021202000F0FCFA0021212000F081
:1010C000F8FA062000F0FBFA38B10021062000F003
:1010D0000BFB0021222000F0ECFA072000F0EFFAD1
:1010E00038B10021072000F0FFFA00211F2000F096
:1010F000E0FA022000F0E3FA08B1FFF704FD002057
:1011000000F0DDFA10B37B480078F8B9202000F039
:1011100079FAD8B10120774988710020C87065201C
:1011200000F0BEFA20B902212A2000F0C2FA14E031
:1011300072480078012810D001206E490870002004
:10114000887101212A2000F0B4FA06E0694880790C
:1011500018B1002067498871C870012000F0AFFA0B
:1011600001280CD16348007A48B90120614908720E
:101170004872FFF74DFA0021012000F0B5FA5D48F2
:10118000407A90B15B48007878B90020594948729C
:1011900000212A2000F08DFA0021012000F0A4FA9D
:1011A000002054490872C870087110BD00F48061B5
:1011B00079B15349097831B90421524A5161012169
:1011C0004F4A117005E004214E4A116100214C4A3A
:1011D0001170704770B5054605F00400002863D013
:1011E0004948007830B90A2001F0DEFD0120464967
:1011F000087059E044480078012823D101F0E1FD4E
:10120000044642480078401C404908704048006845
:1012100020443F4908603D48007814280ED1084614
:1012200000681421B0FBF1F084B22146102000F0D8
:1012300040FA0020354908703549086002203249DB
:10124000087031E030480078022806D10B2001F008
:10125000ABFD03202C49087026E02B4800780328BA
:1012600022D101F0AEFD04462A480078401C2949ED
:1012700008702948006820442749086025480078FC
:1012800014280ED1084600681421B0FBF1F084B296
:101290002146112000F00DFA00201E4908701E4959
:1012A000086000201849087070BD10B504463C2045
:1012B00000F005FA28B1FFF7ABF900213C2000F05F
:1012C00013FA032000F0FBF9012805D1FFF71CFAFF
:1012D0000021032000F008FA042000F0F0F90128B2
:1012E00020D1FFF728FA19E07400002075000020D3
:1012F00076000020180100202601002006010020B1
:10130000540000200010014058000020640000201C
:101310005C00002065000020600000200021042007
:1013200000F0E2F910BD10B5044604F4805020B17D
:101330000E48007808B905F01FFF10BD10B504462F
:101340002046FFF7B2FF2046FFF730FF2046FFF7A9
:1013500041FF2046FFF712FC2046FFF7E4FF20463E
:10136000FFF79DFE2046FFF774FC10BD180100201A
:1013700010B500F033FA23202D49088540F2F31010
:10138000888501200880888100F0F2FF00F0F4FEDB
:1013900010BD10B500F052F810BD0020244988811E
:1013A000704701202249888170472DE9F0410020D3
:1013B0001F4908821F4800681F4908601D480068CF
:1013C000401C1C4908601C480068096848401A49CC
:1013D000086000F03CF800F0AFF800F010F9C643E8
:1013E000B1B20B2000F065F900F021F90646B1B268
:1013F0000D2000F05EF902F0AAFA0746C01707EBCD
:10140000907084102146122000F053F902F0A2FAE5
:101410000746C01707EB907085102946132000F08F
:1014200048F905480068FFF789FFBDE8F081000032
:10143000001000407C000020780000204FF0FF30BA
:101440008D490860084600688C490860704710B5EF
:101450008B4A906800F04002520100F4805342EA47
:10146000931200F4806342EA930200F400731A437B
:1014700000F4006342EA1311824A106800F004028B
:1014800041EAC201804A106800F0080241EA4202C3
:1014900000F0100342EA530200F0200342EAD302B4
:1014A00000F4807342EAD312C0F3402342EA0301FE
:1014B000764A106800F4807241EA8201744A127818
:1014C000521CD2B2724B1A70042A01DB00221A702D
:1014D000704A6F4B1B7842F8231012686D4B5B68A3
:1014E0001A436C4B9B681A436A4BDB681A43694B7F
:1014F0001B68684C64682340664CA4682340654CB4
:10150000E468234082EA03015B4A12685B4B1A607D
:10151000594A12680A40584B1A605E4A12688A4358
:101520001B681A43544B1A601A461268534B1B68C7
:101530005A40594B1A6010BD5849097801F0010111
:10154000564A127802F002021143544A127802F00D
:10155000040241EA0211514A127802F0080241EAFB
:101560000210C3218143494A0832116000F0C301CF
:10157000121D11604949097801F08001474A12782B
:10158000C2F3801242EA9111444A128802F4807236
:1015900041EA8201414A128802F4007241EA820162
:1015A0003E4A128802F4806241EA82013B4A128874
:1015B00002F4006241EA8201384A128802F4805241
:1015C00041EA820047F6034181432F4A0832116005
:1015D00047F603410140121D11603049097801F0BE
:1015E00010012E4A127802F0200241EA0200302156
:1015F0008143234A116100F03001516170471E4858
:101600000068704701461C480068084008B1012086
:1016100070470020FCE701461F480068084008B1F9
:10162000012070470020FCE71C49086070471B48F8
:1016300000687047014619480068084008B1012059
:1016400070470020FCE7154909680143134A1160FF
:101650007047124909688143104A1160704729B1E7
:101660000E4A126802430D4B1A6004E00B4A1268DE
:1016700082430A4B1A6070478800002084000020D3
:101680000010014008140140080C01400808014006
:1016900080000020300100208C00002098000020F5
:1016A0000146FF2901DD00207047F94830F811009C
:1016B000FAE7FF2802DCF64A22F8101070470146CC
:1016C000CA10B2F5007F01DB00207047F1480068C6
:1016D000825C01F00700F04B33F81000104008B1B5
:1016E0000120F2E70020F0E730B50246D010B0F557
:1016F000007F00DB30BD61B1E64B1B681B5C02F074
:101700000704E54D15F814402343E24C24682354A4
:101710000BE0E04B1B681B5C02F00704DE4D35F864
:101720001440A343DB4C2468235400BFE2E770B5A8
:1017300001460020CB1001F00701002519E0D54E2D
:101740003668F45CD44E16F811200DE0401004EA1F
:1017500002060EB140F080006E1CF6B23546082E2F
:1017600000DB70BD5606320E002AEFD100215E1C50
:10177000B3B2B3F5007FE2DB00BFF2E71FB5012192
:10178000202003F028FBC548008800EB80004FF6BE
:10179000FF7101EA4000ADF808004FF4E150ADF8E8
:1017A00004000020ADF80A00ADF8060001A9BC480D
:1017B00003F06EFC01221146B94803F010FF3720F8
:1017C0008DF8000003208DF801008DF80200012043
:1017D0008DF80300684602F094F91FBD00B585B08E
:1017E0004FF4964001900020ADF80800ADF80A00D3
:1017F000ADF80C00ADF810000C20ADF80E0001A9FA
:10180000A84804F0F2F90121A64804F05FFA40F27A
:101810002551A44804F05EFB012240F22551A14865
:1018200004F060FA25208DF8000002208DF80100F8
:101830008DF8020001208DF80300684602F061F97E
:101840000121984804F042FA4FF40060964908607C
:10185000FFF794FF05B000BD70B504460D464FF488
:1018600000609149091F08600BE000BF80218D488E
:1018700004F0F0FA0028F9D014F8011B894804F0AC
:1018800092FA281EA5F10101CDB2EED100BF402190
:10189000844804F0DFFA0028F9D070BD70B540F23A
:1018A0002551804804F0ECFA60B307217D4804F02C
:1018B000D1FA08B1012400E000247A4804F077FA54
:1018C000C5B27A48008840F2FF71884215DAA4B99F
:1018D000774876490988455474480088401C734904
:1018E000088001216E4804F039F900216C4804F0A9
:1018F000F1F801216A4803F057FE40F2255169488A
:1019000004F0E8FA4FF45871664804F0B9FA012877
:1019100003D10821634804F0AAFA70BD10B5012173
:101920005F4804F00AF978B101215D4804F016F926
:1019300000215B4803F038FE4FF400605A49091F4C
:10194000086001205B49087010BD2DE9F04158483E
:1019500040795749097940EA01205749088057489A
:1019600000880988084464284DDA5148C0785049F5
:10197000897800EB012086B24D4800785049087004
:101980004B48407848704C490888C11700EB5171AA
:10199000CC1049490888C11700EB5171C910A0EB60
:1019A000C10109B1601C84B245498C7003274348CA
:1019B00005883F48C0783E49497946180AE0E8B2B0
:1019C000FFF7B5FE39467A1C97B23D4A505405F1EF
:1019D000080085B2B542F2DBE01C81B2384801F064
:1019E0000DF93849088008460178354A201D115400
:1019F00034480088010AE01C1154601DC1B2104631
:101A0000FFF72AFF0EE02A4800782D490870284881
:101A1000407840F0800048700220887003212848F8
:101A2000FFF71AFFBDE8F0812DE9F0412048407929
:101A30001F49097940EA01201F4908801F48008892
:101A400009880844642863DA194800781C4908703A
:101A500017484078487018490888C11700EB517141
:101A6000CC1015490888C11700EB5171C910A0EBC3
:101A7000C10109B1601C84B211498C7003270F4861
:101A800005880B48C0780A494979461827E00000C4
:101A900040010020DC750008BC750008A200002091
:101AA000001400400038014014080140A400002048
:101AB00040030020A6000020AC000020AA00002067
:101AC000400B0020AE000020E8B2FFF730FE3946A0
:101AD0007A1C97B2FE4A505405F1080085B2B5420F
:101AE000F2DBE01C81B2FA4801F088F8F94908807D
:101AF00008460178F64A201D1154F6480088010A6C
:101B0000E01C1154601DC1B21046FFF7A5FE0EE0A7
:101B1000F1480078EE490870EF48407840F08000C6
:101B20004870022088700321E948FFF795FEBDE860
:101B3000F08170B5E9480088B0F57A7F3CDAE64874
:101B4000C478E51004F007040079FF2803D0E248C8
:101B50004079FF2805D1E14908780121FFF7C4FD4C
:101B600004E0DE4908780021FFF7BEFDDA4800787E
:101B7000D7490870D84840784870D748807888702E
:101B8000D548C078C870D44800790871D2484079E7
:101B900048710621CE4801F031F8CE490880084648
:101BA0000078CB49C871CB480088000A88710821A9
:101BB000C748FFF751FE0EE0C7480078C4490870D7
:101BC000C548407840F080004870022088700321AA
:101BD000BF48FFF741FE70BD10B5BF484079BE4910
:101BE000097940EA0120BE490880BC48008809887C
:101BF0000844B0F57A7F56DA00242AE0E11704EBB6
:101C00005171C910C91DB44A515C01F0010139B1CB
:101C1000B24909782144C8B20121FFF765FD06E009
:101C2000AE4909782144C8B20021FFF75DFDE117F4
:101C300004EB5171C910C91DA74A515C4A102046D6
:101C4000E11704EB5171C910C91DA34B5A54601C14
:101C500084B2A34800888442D0DB9F4800789C4926
:101C600008709D48407848709B48807888709A48F2
:101C7000C078C870984800790871974840794871D1
:101C80000621934800F0BAFF924908800846007880
:101C90008F49C8718F480088000A887108218C48D4
:101CA000FFF7DAFD0EE08C480078894908708A4811
:101CB000407840F0800048700220887003218448FA
:101CC000FFF7CAFD10BD70B5834840798249097994
:101CD00040EA012082490880804800880988084439
:101CE000B0F57A7F50DA7C480078794908707A48F4
:101CF000407848707A4800784006000E887077482F
:101D00000588002414E0291988B2FFF7C9FC0012E5
:101D1000032101EB44016E4A5054291988B2FFF7A0
:101D2000BFFC042101EB4401694A5054601C84B299
:101D30006B4800888442E6DB69480088032202EB96
:101D4000400081B2624800F059FF624908800846AD
:101D5000017863480088042202EB40005C4A115479
:101D60005C480088010A5E480088032202EB4000BC
:101D7000574A11545A480078052202EB4000C1B27C
:101D80005348FFF769FD0EE053480078504908704A
:101D90005148407840F0800048700220887003214C
:101DA0004B48FFF759FD70BD70B54B4840794A4923
:101DB000097940EA01204A49088048480088098892
:101DC0000844B0F57A7F50DA4348007840490870FB
:101DD000414840784870424800784006000E8870BC
:101DE0003E480588002414E0291988B2FFF758FC02
:101DF0000012032101EB4401354A5054291988B2DD
:101E0000FFF74EFC042101EB4401314A5054601CA1
:101E100084B2334800888442E6DB314800880322DC
:101E200002EB400081B22A4800F0E8FE2949088010
:101E3000084601782A480088042202EB4000244A20
:101E4000115424480088010A25480088032202EB27
:101E500040001F4A115422480078052202EB40003E
:101E6000C1B21B48FFF7F8FC0EE01B480078184988
:101E700008701948407840F080004870022088704F
:101E800003211348FFF7E8FC70BD70B513480488C0
:101E9000114840791049097900EB012085B22946A3
:101EA0002046FFF706FC0C480078094908700A48EC
:101EB000407848700848807888700748C078C870B3
:101EC000054800790871044840794871062109E005
:101ED000400B0020AE00002040030020AA0000209C
:101EE000AC0000209B4800F089FE9B490880084612
:101EF00000789849C87198480088000A88710821BC
:101F00009448FFF7A9FC70BD2DE9F0419348407952
:101F10009249097940EA0120914908809148008856
:101F200009880844B0F57A7F42DA8E480588002493
:101F300014E0281986B2082000EB44008749085CA9
:101F4000072101EB4401854A515C00EB012087B277
:101F500039463046FFF7ADFB601C84B280480088EC
:101F60008442E6DB7D4800787A4908707B484078F7
:101F700048707A48807888707848C078C870774808
:101F8000007908717548407948710621714800F060
:101F900035FE71490880084600786E49C8716E4860
:101FA0000088000A887108216A48FFF755FC0EE096
:101FB0006A480078674908706848407840F08000B7
:101FC00048700220887003216248FFF745FCBDE895
:101FD000F08110B564480078012870D15F4800781E
:101FE0006249097888426BD15C48407801281BD04F
:101FF0005A484078022817D058484078032813D010
:102000005648407804280FD05448407805280BD013
:1020100052484078062807D0504840780F2803D00F
:102020004E48407810287BD14C48C0784B4989787D
:1020300040EA01204B49088008460088B0F5FA6F55
:102040005DDA4B480088642859DA49480088801EC8
:1020500081B2424800F0D2FD3F49088044480088E0
:10206000401E3E49095C42480088801E3B4A105C85
:1020700041EA002438480088A04230D11046407818
:10208000052816D008DC012810D002280BD0032820
:1020900017D0042821D117E0062818D00F280BD01C
:1020A00010281AD116E0FFF750FC17E0FFF7BCFC30
:1020B00014E0FFF73EFD11E0FFF78EFD0EE047E074
:1020C0003DE0FFF700FE09E0FFF7FDFD06E0FFF74A
:1020D000DCFE03E0FFF718FF00E000BF2FE01F4821
:1020E00000781C4908701D48407840F08000487016
:1020F0000420887003211748FFF7AEFB1FE0174844
:102100000078144908701548407840F08000487005
:102110000220887003210F48FFF79EFB0FE0FFE7C6
:102120000E4800780B4908700C48407840F0800059
:1021300048700120887003210648FFF78DFB0020BE
:10214000094908700A4908804FF40060094908608D
:1021500010BD0000400B0020AE0000204003002016
:10216000AC000020AA000020A6000020A100002052
:10217000A400002014080140212071490880572044
:102180006F491039088001206D49183908806C4862
:10219000001F008840F001006949091F08800020E5
:1021A000091F088021206749088057206549103998
:1021B000088001206349183908806248001F0088A0
:1021C00040F001005F49091F08800020091F0880B6
:1021D000704700205C49088010E000205B495A4AA3
:1021E000128821F8120000215948574A128820F815
:1021F000121055480088401C5349088052480088F6
:102200001428EADB002053490880534908805349C9
:10221000088053490880534908805349086053494E
:10222000086070474B4A1288521C4A4B1A801A4663
:102230001288C82A7CDB00221A80434A1288521C6A
:10224000414B1A801A461288142A01DB00221A8098
:102250003B4A0C321088404A1288904208DA3E4AC3
:1022600012884FF6FF739A1A0244521C91B203E08F
:10227000394A1288821A91B2374A10803A4A126853
:102280000A44394B1A60314A2F4B1B8832F813200D
:10229000354B1B689A1A344B1A602C4A2A4B1B8800
:1022A00022F81310304A1268B2F5803F04D34FF67B
:1022B000FF722B4B1A8003E02B4A1288284B1A809E
:1022C000204A0C321088254A1288904208DA234AA4
:1022D00012884FF6FF739A1A0244521C91B203E01F
:1022E0001E4A1288821A91B21C4A10801F4A126834
:1022F0000A441E4B1A60164A134B1B8832F81320EF
:102300001A4B1B689A1A194B1A60114A0E4B1B88FC
:1023100022F81310154A1268B2F5803F04D34FF625
:10232000FF72104B1A8003E0104A12880D4B1A807E
:1023300070470B48008870470A48008870470000C3
:1023400018340140182C0140B00000204013002038
:1023500068130020B2000020B4000020BC00002060
:10236000B6000020BE000020B8000020C000002001
:1023700010B50820F44908807020F349183108800E
:102380000320F149203108802320EF4928310880BB
:102390004FF47A70091D08804010EB4934310880F1
:1023A0000120E9490C3108800820C10608804FF45B
:1023B000E040088330200884232008854FF47A7099
:1023C000888540100887012088818202DF49E04823
:1023D00000F0DEF94FF48062DC49DE4800F0D8F905
:1023E000DB48DD490860DB484860002088814FF405
:1023F0008062DA49DA4800F0CBF9D948D949086057
:102400000020888110BD2DE9FE4F06460D4614467A
:102410001F46DDE90DABDDF83090DDF83C80CE489D
:10242000808910B10020BDE8FE8FC748008820F0E9
:102430000100C5490880A54201D92D1B00E00025F7
:102440000DB90120EFE7534632462946C048CDE991
:1024500001B9CDF8008000F0A1F910B1BC4800F03E
:10246000D3F900BFBA4800F0D2F90028FAD04FF6ED
:10247000FF7000EA4400B849C8820020086208469C
:10248000A0F81080078301208881084600F02BFB0C
:102490005020AD492C3108802820AB4934310880C8
:1024A000A949403108800020A74924310880A64866
:1024B000008840F00100A44908800020A2491031A2
:1024C00008800120AFE7A448808A08B10120704746
:1024D0000020FCE70020A0498882888170479E493F
:1024E0004882704702469C48808908B100207047A6
:1024F0000020994B98601A831846418392480088BF
:1025000020F00100904B18808F482C30018000880B
:1025100040108D4B3433188006208F4B988100205B
:10252000894B243318808848008840F00100864B8E
:1025300018800020844B103318800120D7E7824890
:10254000008820F001008049088000207E49103179
:1025500008808149888170477F48007B70477E48AA
:10256000006A704700207C490862704710B500205F
:1025700075491031088078488089F0B17648408BE1
:10258000401E71492C3108807348408B502806DD6D
:102590007148408B28386C493431088007E06E4917
:1025A000488B00EBD0714910674A3432118066487D
:1025B000008840F0010064490880654800F027F970
:1025C000654800F090FA6448006A401C624908625D
:1025D00010BD2DE9FE4F04460D4616461F46DDE9A7
:1025E0000DABDDF83090DDF83C805E48808910B19D
:1025F0000020BDE8FE8F4FF08040008820F00100F1
:102600004FF0804108800DB90120F2E75346224681
:1026100029465348CDE901B9CDF8008000F0BEF855
:1026200010B14F4800F0F0F800BF4D4800F0EFF84F
:102630000028FAD04B48C682A0F8108007830120FA
:1026400048498881084600F0C3F9502081068885F2
:1026500028200887002088840846008840F0010070
:102660000880002008820120C3E73E48808A08B124
:10267000012070470020FCE73A4948827047024633
:102680003848808908B1002070470020354B986099
:102690001A83184641834FF08040008820F00100E3
:1026A0004FF08043188018468185808D4010188730
:1026B00006202C4B988100204FF0804398841846C8
:1026C000008840F001001880002018820120DBE71C
:1026D0004FF08040008820F001004FF080410880DA
:1026E000002008821F49888170471E48007B704780
:1026F00010B500204FF0804108821A488089E0B16F
:102700001848408B401E88851648408B502804DDB1
:102710001448408B2838088707E01249488B00EBA3
:10272000D07149104FF0804211874FF080400088EF
:1027300040F001004FF080410880094800F067F840
:10274000084800F045F910BD000C004000140020BE
:1027500090130020C8130020001C0020601C0020E3
:10276000281C0020602400200146042900D30321F6
:10277000064850F8310070470146042900D3032170
:10278000024800EBC10080887047000060720308B7
:1027900010B50346586959611A8310BD2DE9F05FE1
:1027A00004460D4616461F46DDE90B9ADDF82880E3
:1027B0004FF0000BE088B0420ED12069A8420BD147
:1027C0006089B84208D1A089404505D12089484593
:1027D00002D1E089504501D04FF0010BE680256120
:1027E0006781A4F80C80A4F80890A4F80EA0E088F3
:1027F000FFF7BAFF2060E088FFF7BEFFA08000204F
:1028000060635846BDE8F09F01214185704770B56F
:102810000146486B401C4863488D012806D00328B8
:1028200040D004284FD0052837D199E000200884F3
:10283000C86188850885088AC88508690863488949
:102840008D89A84204DD488948848889888403E00A
:102850008889488448898884488C4D69288001206B
:10286000C88400228888401E83B29C1000BF08687C
:1028700030F814004D8CA84201DB224600E02346CC
:10288000D0184410501C8342F1DC086830F8130063
:102890004D8CA84202DD0520488591E00C84032080
:1028A000488500BF488C8D8CA84203DD088D401CF4
:1028B000088507E048898D89A84201DC088D888554
:1028C0000420488500BF4D8CCE89C86905FB0600F1
:1028D000C861088CCD6900EBD5300884888BC0F3C3
:1028E0000E00C861088C401C8D88A84208DB8888CF
:1028F000401E0D6835F810004884052048851AE010
:102900000D8C086830F81520088C401C0D6835F8CF
:1029100010309A4206DBD01ACD696843A2EBD03062
:10292000488400E04A84488C0D89A84203DA08896B
:102930004884052048854D8CCE8C701CC88448691D
:1029400020F81650C88C0D8BA84206DA0D8DC88C65
:10295000C5EB40000D69A84201D3052048852FE052
:1029600048898D89A84214DD00208885C88CC885D7
:102970000D8D08692844401C0863CD8C086BA84263
:1029800004D9CD8C086B401B086316E00020086357
:1029900013E0088D8885C88C0D8D401BC88508699B
:1029A000401C0863CD8C086BA84204D9CD8C086B01
:1029B000401B086301E0002008630620488500BF33
:1029C00000BF488D042801DB012070BD0020FCE71A
:1029D0008168491C8160818907297AD2DFE801F08A
:1029E0007904132E3C5B7200002141820168898DBD
:1029F000491CC1810168498941830221816081812B
:102A00000021818265E001684969C28931F81210AC
:102A100041830268D28D816891420BD30168C98DD0
:102A20000268126B914202D90421818105E00321E1
:102A3000818102E0C189491CC1814AE0016849697C
:102A4000C28931F81210418302688168126B914289
:102A500001D3042181813CE0C18911B1C189491EA2
:102A6000C18101684969C28931F812104183026845
:102A70008168126991420DD3016889894183C18AB5
:102A800021B906218181018B816003E005218181CB
:102A9000002181601DE0018A4183C28A81689142E0
:102AA0000BD8418A69B1018B21B1062181810021B6
:102AB000816006E00021818103E001218182002103
:102AC000818106E0028B8168914201D900218181D8
:102AD00000BF00BF418B02681289914202DA01688F
:102AE0000989418370478168491C81608189072970
:102AF0007AD2DFE801F07904132E3C5B72000021EA
:102B000041820168898D491CC181016849894183DD
:102B10000221816081810021818265E0016849692B
:102B2000C28931F8121041830268D28D81689142C6
:102B30000BD30168C98D0268126B914202D904213E
:102B4000818105E00321818102E0C189491CC181A5
:102B50004AE001684969C28931F81210418302686C
:102B60008168126B914201D3042181813CE0C189CB
:102B700011B1C189491EC18101684969C28931F811
:102B80001210418302688168126991420DD3016875
:102B900089894183C18A21B906218181018B8160A4
:102BA00003E005218181002181601DE0018A4183CC
:102BB000C28A816891420BD8418A69B1018B21B1E7
:102BC000062181810021816006E00021818103E0EE
:102BD000012181820021818106E0028B816891427E
:102BE00001D90021818100BF00BF418B0268128999
:102BF000914202DA016809894183704770B5024643
:102C0000FF24FF25B1F57A7F01DD4FF47A7109E0E9
:102C100012F8010B80EA04030648C05C80EA050450
:102C20000548C55C081EA1F10106B1B2F0D145EA24
:102C3000042070BDE0750008E07600080246FF2918
:102C400001DB0020704790880844401C136833F86B
:102C50001000F7E701468A88086830F812007047CC
:102C600010B50A4602604FF480710AE0036833F839
:102C700011304FF6FF74A34200D105E001F58073D7
:102C800099B2B1F5806FF1DB00BFA1F5807383804D
:102C90000123C38010BD70B50446A188206830F8B8
:102CA00011504FF6FF70854201D1002505E04FF627
:102CB000FE70854201DA681C85B2352001F006FD00
:102CC000A08800F58070B0F5806F05DB206801F00A
:102CD000D5FA0020A08003E0A08800F58070A080D5
:102CE0000120E080A188226802EB4100294601F022
:102CF0008DFB70BD70B504460D46E088FF2800DBF3
:102D000070BD352001F0E2FCA188E2881144226800
:102D100002EB4100294601F079FBE088401CE0808D
:102D200000BFEDE700B587B001214FF4047002F059
:102D300045F84FF4004001F0A5FF0320ADF8040072
:102D400000208DF8070001A92F4801F02BFD2F4826
:102D500000F040FF002002908DF80C008DF80D006F
:102D60004FF4602004900020059001208DF8180099
:102D700002A9264800F055FF0121244800F07DFFFC
:102D8000224800F09CFF00BF204800F09DFF002873
:102D9000FAD11E4800F0A2FF00BF1C4800F0A3FFBC
:102DA0000028FAD107B000BD10B504460623012261
:102DB0002146164800F0CDFF0121144800F09DFF88
:102DC00010BD10B50221114801F008F918B10F48E3
:102DD00001F026F810BD7B20FCE710B50446072360
:102DE00001222146094800F0B4FF0121074800F004
:102DF00084FF00BF0221054801F0F0F80028F9D057
:102E0000024801F00DF810BD0010014000240140FF
:102E100000B585B04FF4964000900020ADF8040056
:102E2000ADF80600ADF80800ADF80C000C20ADF8C8
:102E30000A006946FE4802F0D8FE40F22551FC48DF
:102E400003F048F8012240F22551F94802F04AFF08
:102E500026208DF8100003208DF8110004208DF835
:102E6000120001208DF8130004A800F04AFE012191
:102E7000EF4802F02BFF4FF40040EE4908600121BB
:102E8000EB4802F023FF05B000BD70B540F22551BC
:102E9000E74802F0F5FFF0B10721E54802F0DAFF5C
:102EA00008B1012400E00024E14802F080FFC5B22F
:102EB000E148008840F2FF7188420CDA5CB9DF48D3
:102EC000DD4909884554DC480088401CDA490880FF
:102ED0000020DB49087070BD70B504460D464FF404
:102EE0000040D44908600BE000BF8021D04802F0C8
:102EF000B1FF0028F9D014F8011BCD4802F053FFB0
:102F0000281EA5F10101CDB2EED100BF4021C84875
:102F100002F0A0FF0028F9D00120CA490870C003C0
:102F2000C449091D08600120C749087070BDC44824
:102F30000078401CC249087008460078322809DD34
:102F4000C1480078012802D10220BF490870002042
:102F5000BB490870704710B50120BC4908700620B5
:102F60004870002088702420C870002008714871C3
:102F70000621B648FFF742FE0446200AB34988718D
:102F8000CC710821B148FFF7A7FF10BD2DE9F04132
:102F900006460C461546AD4806700120AB49487000
:102FA00020128870CC70281208714D710621A74834
:102FB000FFF724FE0746380AA4498871CF7108211B
:102FC000A248FFF789FFBDE8F0812DE9F0410646F0
:102FD0000C4615469D48067002209C4948702012F8
:102FE0008870CC70281208714D7106219748FFF740
:102FF00005FE0746380A95498871CF710821934824
:10300000FFF76AFFBDE8F0812DE9F04106460C4666
:1030100015468E48067003208C494870201288702F
:10302000CC70281208714D7106218848FFF7E6FD23
:103030000746380A85498871CF7108218348FFF710
:103040004BFFBDE8F0812DE9F04106460C461546E0
:103050007E48067004207D49487020128870CC702C
:10306000281208714D7106217848FFF7C7FD074601
:10307000380A76498871CF7108217448FFF72CFF10
:10308000BDE8F0812DE9F04107460C469046B8F1C5
:10309000010F1FD16E4830F8140010B14FF47F4576
:1030A00000E0002569480770052068494870201233
:1030B0008870CC70281208714D7106216348FFF7A3
:1030C0009DFD0646300A61498871CE7108215F482E
:1030D000FFF702FFBDE8F0812DE9F04106460C46FE
:1030E0001746012F1DD159480670062057494870D0
:1030F00020128870CC70574830F814000012087104
:10310000544810F81400487106215048FFF776FD26
:103110000546280A4D498871CD7108214B48FFF7B3
:10312000DBFEBDE8F0812DE9F04781460F461546EC
:103130007819642873DA2846E91705EB5171C1F351
:10314000CF06E91705EB5171C910A5EBC10109B113
:10315000701C86B2002460E0E11704EB5171C910C5
:10316000A4EBC10141B900222046E11704EB5171E3
:10317000C910C91D354B5A542046E21704EB527250
:10318000D210D21D314B9A5C53102146E21704EB4A
:103190005272D210D21DDFF8B4C00CF802303819C8
:1031A0002B4931F8100088B12046E21704EB527227
:1031B000D210D21D63469A5C42F080032146E2178A
:1031C00004EB5272D210D21D0CF80230681EA042DD
:1031D00021D1E91705EB5171C910A5EBC101D1B19E
:1031E000E21704EB5272D210D21D184B9A5C29469A
:1031F000EB1705EB5373DB10A5EBC303C3F1080317
:103200001A412046E31704EB5373DB10DB1DDFF894
:103210003CC00CF80320601C84B2AC429CDB0B4821
:1032200080F800900F20094948703812887013E028
:103230000044004010080140D40000205636002011
:10324000C8000020E2000020D60000201E37002029
:10325000AE3800203E3A0020CF70281208714D7120
:103260008E71F01D81B2FD48FFF7C8FC80464FEA21
:103270001821F01DF94A1154401C02F80080401C2E
:10328000C1B21046FFF728FEBDE8F0872DE9F041F6
:1032900080460E4614463019B0F57A7F17DA0025BD
:1032A00013E07019EE4931F810000012072101EB0C
:1032B0004501EA4A50547019E94911F810000821F3
:1032C00001EB45015054681CC5B2A542E9DBE34857
:1032D00080F800801020E149487030128870CE706C
:1032E000201208714C716006000E88716000C01DCC
:1032F00081B2DA48FFF782FC0746390A6000C01D38
:10330000D64A115460000830175460000930C1B229
:103310001046FFF7E1FDBDE8F0812DE9F0410746D9
:103320000C4615461E46052C20D006DC012C0BD081
:10333000022C0FD0032C31D112E0062C1CD00F2C04
:1033400020D0102C2AD123E0324629463846FFF7F8
:103350001DFE23E0324629463846FFF736FE1DE0C3
:10336000324629463846FFF74FFE17E032462946D7
:103370003846FFF787FE11E0324629463846FFF708
:10338000ABFE0BE0324629463846FFF7CCFE05E09F
:10339000324629463846FFF779FF00BF00BFBDE837
:1033A000F08110B5012211461046FFF72DFE10BD29
:1033B00010B5AC490988AC4A1288114464292ADA4C
:1033C000002020E00146C21700EB5272D210D21C3E
:1033D000A64B9A5C02F00102A24B1B880344A44C4A
:1033E00024F81320C21700EB5272D210D21C9F4B4C
:1033F0009A5C5310C21700EB5272D210D21C9B4C35
:10340000A354411C88B2984909888842DADB00211C
:10341000984A117002E00121964A11700021964AE3
:10342000117010BD10B58F4909888F4A1288114458
:1034300064292ADA002020E00146C21700EB52720C
:10344000D210D21C894B9A5C02F00102854B1B887A
:1034500003448A4C24F81320C21700EB5272D21096
:10346000D21C824B9A5C5310C21700EB5272D210DE
:10347000D21C7E4CA354411C88B27B4909888842E7
:10348000DADB00217B4A117002E00221794A1170D7
:103490000021794A117010BD10B5744B9A7802EB77
:1034A000D27359106F4A12880A44B2F57A7F25DA2E
:1034B00000201DE0032202EB40026C4B9A5C694B3A
:1034C0001B8803446E4C24F81320042202EB4002B4
:1034D000664B9A5C634B1B88034414F8133002EB71
:1034E0000322604B1B88034424F81320421CD0B2F3
:1034F0008842DFDB00225F4B1A7002E003225D4B43
:103500001A7000225C4B1A7010BD574908880028B9
:1035100006DD56490979FF2902D15449497931B16B
:1035200048B95249097931B95049497919B9002145
:10353000504A117002E005214E4A117000214E4A96
:103540001170704749494979484A127941EA022085
:103550004349444A128831F81210814203D10021B4
:10356000444A117002E00621424A11700021424A89
:10357000117070473D4949793C4A127941EA02206D
:1035800039490988884203D100213A4A117002E082
:103590000F21384A11700021374A117070473349A2
:1035A0004979324A127941EA02202F490988884232
:1035B00003D100212F4A117002E010212D4A117011
:1035C00000212D4A1170704770B52E4800780228EE
:1035D00071D1264800782C49097888426CD123485B
:1035E0004078012817D021484078022813D01F487E
:1035F000407803280FD01D48407805280BD01B4881
:103600004078062807D0194840780F2803D017487B
:10361000407810285FD11D480088801E81B2134871
:10362000FFF7ECFA044619480088401E0F49095C70
:1036300016480088801E0D4A105C41EA0025AC4205
:1036400045D11046407805282FD021DC012829D00B
:10365000022824D0032839D12FE000001E37002093
:103660003E3A0020DE000020E00000205636002018
:10367000AE380020E3000020E2000020E637002002
:1036800076390020D6000020DB000020D400002086
:10369000062815D00F280BD0102817D113E0FFF7FC
:1036A000C1FE13E0FFF784FE10E0FFF72EFF0DE0F0
:1036B000FFF760FF0AE055E048E0FFF7EDFE05E0A8
:1036C000FFF740FF02E0FFF76AFF00BF3EE00E2079
:1036D000374908703AE037484078812817D0354894
:1036E0004078822813D03348407883280FD031485F
:1036F000407885280BD02F484078862807D02D4861
:1037000040788F2803D02B48407890281ED1294834
:103710008078012806D0022808D003280AD004287F
:1037200010D10BE00B20224908700BE00C2020493F
:10373000087007E00D201E49087003E00E201C49A8
:10374000087000BF00BF00201B49087000201B4903
:1037500008701B4908804FF400401A490860002097
:103760001549087070BD10B51748007806281DD29D
:10377000DFE800F0030F1011171B01222A21104669
:10378000FFF742FC03201049087000200F49087021
:103790000CE00BE00AE0FFF717FF04200A4908706D
:1037A00004E000200849087000E000BF00BF10BD21
:1037B000E300002056360020E2000020D600002062
:1037C000D400002010080140C5000020C8000020DF
:1037D00000B585B04FF4964000900020ADF804008D
:1037E000ADF80600ADF80800ADF80C000C20ADF8FF
:1037F0000A006946264802F0F8F940F225512448AB
:1038000002F068FB012240F22551214802F06AFAD9
:1038100034208DF8100003208DF8110005208DF85C
:10382000120001208DF8130004A800F06AF90121AC
:10383000174802F04BFA4FF480501649086105B062
:1038400000BD704770B504460D464FF480501149D5
:1038500008610BE000BF80210F4802F0FBFA00284E
:10386000F9D014F8011B0C4802F09DFA281EA5F1AE
:103870000101CDB2EED100BF4021054802F0EAFAC5
:103880000028F9D04FF480500249486170BD000013
:10389000004C004000100140004400401FB50020D3
:1038A00000900190022003906946002000F0C5FBC3
:1038B0006946102000F0C1FB0021084600F03BFCE7
:1038C0000021084600F044FC0020264908802649D3
:1038D0000880012100F0CEFB0121102000F0CAFB7E
:1038E0001FBD10B5044621480088204420490880A7
:1038F00008460088B0F5006F05DD08460088A0F591
:103900000060088002E000201949088018480088FB
:10391000B0F5805F03DB40F6FF701549088014485E
:103920000188002000F007FC10BD10B504460D48CA
:1039300004800088B0F5805F03DB40F6FF70094922
:10394000088008480188002000F002FC10BD0848EB
:1039500000887047034800887047044A22F8101016
:1039600070470000E8000020E6000020EA00002088
:10397000EE0000200CB50020019000904748006840
:1039800040F480304549086000BF4448006800F4B6
:10399000003000900198401C0190009818B90198DF
:1039A000B0F5A06FF1D13D48006800F4003010B1CF
:1039B0000120009001E0002000900098012842D1F1
:1039C0003748006840F01000354908600846006834
:1039D00020F0030008600846006840F0010008601D
:1039E0002E4840682D4948600846406848600846AF
:1039F000406848600846406820F47C1048600846EB
:103A0000406840F4F81048600846006840F0807054
:103A1000086000BF2148006800F000700028F9D05D
:103A20001E48406820F003001C4948600846406872
:103A300040F00200486000BF1848406800F00C00E9
:103A40000828F9D101E000BFFEE70CBD10B5FFF773
:103A500091FF10BD10B51148006840F001000F49FA
:103A60000860084640680F4908400C49486008460D
:103A700000680D490840094908600846006820F4BC
:103A8000802008600846406820F4FE0048604FF43B
:103A90001F008860FFF7DAFF10BD00000010024031
:103AA000002002400000FFF8FFFFF6FE70470B48C1
:103AB00080470B4981F308880A480047FEE7FEE784
:103AC000FEE7FEE7FEE7FEE7FEE7FEE7FEE7FEE7CE
:103AD00005480649064A074B70470000AD3A000802
:103AE000A844002031010008A83C0020A844002080
:103AF000A8400020A840002031490143314A11600C
:103B0000704770B5002100230F22C47804B32D4CF8
:103B1000246804F4E064C4F5E064210AC1F10403FC
:103B2000CA40447804FA03F184781440214309011F
:103B3000254C0678A155047804F01F050124AC40FB
:103B400005786D11AD0005F1E025C5F8004109E0EB
:103B5000047804F01F050124AC401C4D0678761152
:103B600045F8264070BD1A4A0A400243154B1B1FF8
:103B70001A60704739B1134A121D12680243114B83
:103B80001B1D1A6006E00F4A121D126882430D4B7E
:103B90001B1D1A607047042808D14FF0E021096905
:103BA00041F004014FF0E022116107E04FF0E02105
:103BB000096921F004014FF0E02211617047000013
:103BC0000000FA050CED00E000E400E080E100E018
:103BD00080FFFF1F10B50446FA48844208D1012136
:103BE000401501F005F90021601501F001F917E019
:103BF000F548844208D10121001501F0F9F80021AF
:103C0000201501F0F5F80BE0F048844208D10121BD
:103C1000C80301F0EDF800214FF4004001F0E8F88E
:103C200010BD30B50246002000235068E84C20400B
:103C30000D790C6844EA0524204350609068E54CF7
:103C40002040D1E902542C434D7944EA45042043F5
:103C50009060D06A20F470000C7C641EE4B22343B0
:103C600040EA0350D06230BD002101600171417112
:103C70008160C16001210174704721B1826842F006
:103C80000102826003E0826822F0010282607047D4
:103C900021B1826842F48072826003E0826822F47B
:103CA00080728260704710B50023CBB21AB14468AD
:103CB0001C43446002E044689C43446010BD81683A
:103CC00041F0080181607047014600208A6802F0D7
:103CD00008020AB1012000E000207047816841F02D
:103CE000040181607047014600208A6802F00402E6
:103CF0000AB1012000E00020704721B1826842F43F
:103D0000A002826003E0826822F4A0028260704711
:103D1000014600208A6802F480020AB1012000E016
:103D20000020704710B50A4600210023416821F4A5
:103D30006041531E41EA4331416010BD21B14268E8
:103D400042F40062426003E0426822F40062426092
:103D50007047F0B504460D4600200021092D11DD05
:103D6000E068A5F10A0606EB4607072606FA07F102
:103D70008843A5F10A0606EB460603FA06F1084356
:103D8000E0600CE0206905EB4507072606FA07F11D
:103D9000884305EB450603FA06F108432061072A2C
:103DA0000FDA606B561E06EB86071F2606FA07F130
:103DB0008843561E06EB860605FA06F10843606343
:103DC00022E00D2A0FDA206BD61F06EB86071F268E
:103DD00006FA07F18843D61F06EB860605FA06F1B8
:103DE0000843206310E0E06AA2F10D0606EB8607A7
:103DF0001F2606FA07F18843A2F10D0606EB860698
:103E000005FA06F10843E062F0BD21B1826842F490
:103E10008012826003E0826822F480128260704720
:103E20000146C86C80B2704766484C3000687047E5
:103E300021B1426842F48062426003E0426822F4A9
:103E400080624260704721B1426842F48052426011
:103E500003E0426822F48052426070470A46002123
:103E6000816821F4E04111438160704721B182688B
:103E700042F40042826003E0826822F400428260E1
:103E8000704721B1826842F40212826003E08268C6
:103E900022F4021282607047014600208A6802F410
:103EA00000120AB1012000E000207047F0B504467E
:103EB0001546002000220026092911DDE068A1F145
:103EC0000A0707EB470C072707FA0CF29043A1F10A
:103ED0000A0707EB470703FA07F21043E0600CE01C
:103EE000206901EB410C072707FA0CF2904301EB24
:103EF000410703FA07F210432061A06BC0F301569B
:103F0000EF1C06F1010CA7EB0C0707EB870C1F2732
:103F100007FA0CF29043EF1C06F1010CA7EB0C071B
:103F200007EB870701FA07F21043A063F0BD10B555
:103F30000A4600210023816B21F44011531E41EAFF
:103F40000351816310BD08B5002300930090009BCE
:103F50000B440093009B1A6008BD08B50246002080
:103F60000090009201F12800009B184400900098F6
:103F7000006880B208BD0A4600214168164B19400E
:103F80001143416070474162826270470A460021D6
:103F9000416821F01F0111434160704740B1094958
:103FA0000831096841F40001064A0832116007E04F
:103FB00004490831096821F40001024A08321160FD
:103FC000704700000024014000280140003C0140EF
:103FD000FFFEF0FFFDF7F1FFFFFD3FFF024600206F
:103FE00013680B400BB1012000E000207047CA436A
:103FF0000260704770B502460020002300240B12B7
:104000005568CEB205EA060415681D4015B10CB11D
:10401000012000E0002070BD00220A12D34303609B
:104020007047000010B50121480700F0EEFE0021A6
:104030004FF0005000F0E9FE10BD30B50022002323
:104040005A4C226840F6FE748440A243D1E90045F0
:104050002C438D682C43CD6844EA050303FA00F431
:104060002243524C226030BD0021016041608160DA
:10407000C160704739B14D4A1268012383401A4329
:104080004A4B1A6006E0494A1268012383409A436A
:10409000464B1A60704741B1444A12684FF480534E
:1040A00083401A43414B1A6007E0404A12684FF4BC
:1040B000805383409A433D4B1A60704710B551B10D
:1040C0003A4A121D126804090123A3401A43374BD0
:1040D0001B1D1A6009E0354A121D126804090123EC
:1040E000A3409A43314B1B1D1A6010BD40B12F49AC
:1040F000091D096841F003012C4A121D116007E0F7
:104100002A49091D096821F00301284A121D11607E
:10411000704710B53AB1254B1B6801FA00F42343F0
:10412000224C236006E0214B1B6801FA00F4A343F4
:104130001E4C236010BD08B5002200921B4A00925D
:1041400000F10802009B1A440092009A116008BD19
:1041500008B500220092154A009200F11402009B5B
:104160001A440092009A116008BD30B50024002363
:10417000082802D142EA012401E042EA01440B4B43
:1041800000F120052B441C6030BD08B5014600201D
:104190000090064800902C2000EB9100009A1044FB
:1041A00000900098006880B208BD000000740040D4
:1041B00001460020FD4A106800F0380008431060F6
:1041C0007047FA49096821F00801F84A1160114660
:1041D0000968014311607047F449096821F0100132
:1041E000F24A116011460968014311607047F048B6
:1041F000EE494860EF4848607047EC48006940F07D
:104200008000EA49086170470420E849C96801F064
:10421000010109B101200EE0E449C96801F004017F
:1042200009B1022007E0E149C96801F0100109B1B4
:10423000032000E00420704708B500200090FF2014
:10424000009002E00098401E009000980028F9D1EC
:1042500008BD70B504460425FFF7D6FF054605E006
:10426000FFF7EAFFFFF7D0FF0546641E012D01D1DD
:10427000002CF5D104B90525284670BD70B505465A
:10428000042440F6FF70FFF7E4FF0446042C19D124
:10429000C648006940F00200C4490861084645610B
:1042A000006940F04000086140F6FF70FFF7D1FF61
:1042B0000446052C06D0BD48006941F6FD71084052
:1042C000BA490861204670BD10B5042440F6FF705D
:1042D000FFF7BFFF0446042C18D1B448006940F032
:1042E0000400B24908610846006940F040000861D6
:1042F00040F6FF70FFF7ADFF0446052C06D0AB4833
:10430000006941F6FB710840A8490861204610BDCC
:1043100010B5042440F6FF70FFF79BFF0446042C01
:104320003BD1A348A1498860A2488860084600693B
:1043300040F0200008610846006940F04000086134
:1043400040F6FF70FFF785FF0446042C1CD1974808
:10435000006941F6DF710840944908610846006928
:1043600040F010000861A520934908800F20FFF756
:1043700070FF0446052C10D08C48006941F6EF719F
:1043800008408A49086108E0052C06D08748006982
:1043900041F6EF71084085490861204610BDF8B527
:1043A00006460D460424002000900F20FFF751FF21
:1043B0000446042C28D17D48006940F001007B4967
:1043C000086135800F20FFF744FF0446042C12D10A
:1043D000B01C0090280C009908800F20FFF739FFCF
:1043E0000446052C10D07148006941F6FE71084062
:1043F0006E49086108E0052C06D06C48006941F65A
:10440000FE710840694908612046F8BD70B505464F
:104410000E4604240F20FFF71CFF0446042C13D182
:104420006248006940F00100604908612E800F2059
:10443000FFF70FFF0446052C06D05C48006941F6E3
:10444000FE71084059490861204670BD70B50546A7
:104450000E4604240F20FFF7FCFE0446042C17D15F
:10446000534852498860534888600846006940F0C4
:10447000100008612E800F20FFF7EBFE0446052C8C
:1044800006D04A48006941F6EF7108404749086183
:10449000204670BD2DE9F04704464FF6FF763746BB
:1044A000B046B1460425E443E6B2C4F30727C4F39B
:1044B00007484FEA14690F20FFF7CBFE0546042D8D
:1044C00040D13B48394988603A48886008460069CD
:1044D00040F010000861FF2E06D0374808300680F3
:1044E0000F20FFF7B6FE0546042D08D1FF2F06D09A
:1044F00031480A3007800F20FFF7ABFE0546042D38
:104500000AD1B8F1FF0F07D02B480C30A0F800807B
:104510000F20FFF79EFE0546042D0AD1B9F1FF0FCB
:1045200007D025480E30A0F800900F20FFF791FE2D
:104530000546052D06D01D48006941F6EF7108407B
:104540001A4908612846BDE8F08770B5054604247D
:1045500040F6FF70FFF77DFE0446042C49D1144855
:1045600012498860134888600846006940F02000BE
:1045700008610846006940F04000086140F6FF709D
:10458000FFF767FE0446042C2AD10848006941F66B
:10459000DF710840054908610846006940F01000D5
:1045A00008615DB10020044908800AE00020024053
:1045B00023016745AB89EFCD00F8FF1FA5204549D2
:1045C000088040F6FF70FFF744FE0446052C10D02B
:1045D0004148006941F6EF7108403F49086108E031
:1045E000052C06D03C48006941F6DF7108403A4985
:1045F0000861204670BD2DE9F04105460E4617467C
:104600000424364834498860354888600F20FFF715
:1046100020FE0446042C19D12F48006940F01000F8
:104620002D49086147F0F800304328432949891C87
:1046300008800F20FFF70DFE0446052C06D0264803
:10464000006941F6EF710840234908612046BDE842
:10465000F0812148C069800870471F48006A704790
:1046600000201D49C96901F0020109B1012000E0E3
:104670000020704700201849096801F0200109B1A5
:10468000012000E00020704729B1134A126902435B
:10469000114B1A6104E0104A126982430E4B1A61F1
:1046A000704701460020012908D10B4AD26902F067
:1046B00001020AB1012008E0002006E0064AD268A3
:1046C0000A400AB1012000E0002070470249C8609A
:1046D0007047000000F8FF1F0020024023016745DB
:1046E000AB89EFCD10B50446C448844208D10121FE
:1046F000042000F07DFB0021042000F079FB46E05F
:10470000BF48844208D10121082000F071FB00213C
:10471000082000F06DFB3AE0BA48844208D101213C
:10472000102000F065FB0021102000F061FB2EE05E
:10473000B548844208D10121202000F059FB002116
:10474000202000F055FB22E0B048844208D101212E
:10475000402000F04DFB0021402000F049FB16E016
:10476000AB48844208D10121802000F041FB0021A8
:10477000802000F03DFB0AE0A648844207D10121D9
:10478000801500F035FB0021A01500F031FB10BDB5
:1047900010B50121084600F02BFB0021012000F09C
:1047A00027FB10BD2DE9F041024600250026002020
:1047B00000230024002791F803C00CF00F0591F8A6
:1047C00003C00CF0100CBCF1000F03D091F802C034
:1047D0004CEA050591F800C0BCF1000F31D0146817
:1047E00000202BE04FF0010C0CFA00F3B1F800C0F0
:1047F0000CEA03069E4220D183004FF00F0C0CFA06
:1048000003F7BC4305FA03FC4CEA040491F803C027
:10481000BCF1280F06D14FF0010C0CFA00FCC2F8D5
:1048200014C00AE091F803C0BCF1480F05D14FF065
:10483000010C0CFA00FCC2F810C0401C0828D1D3AF
:104840001460B1F800C0BCF1FF0F34DD54680020E3
:104850002EE000F1080C4FF0010808FA0CF3B1F853
:1048600000C00CEA03069E4221D183004FF00F0CDA
:104870000CFA03F7BC4305FA03FC4CEA040491F874
:1048800003C0BCF1280F05D100F1080C08FA0CF8A0
:10489000C2F8148091F803C0BCF1480F07D100F1B1
:1048A000080C4FF0010808FA0CF8C2F81080401C00
:1048B0000828CED35460BDE8F0814FF6FF71018027
:1048C000022181700421C170704702460020936864
:1048D0000B400BB1012000E00020704701468868C2
:1048E00080B2704702460020D3680B400BB1012014
:1048F00000E0002070470146C86880B2704701613F
:104900007047416170470AB1016100E04161704741
:10491000C16070474FF480320A43826181618261D5
:10492000826982697047024600203B4B18684FF647
:104930008073184040EA02100843374B18607047F4
:104940003649C8617047F0B50A46002300240021AB
:104950000025314E7168C0F3034583B200F4401660
:10496000B6F5401F08D121F070612B4E766826F015
:104970007066294F7E6012E000F48016B6F5801F45
:1049800006D1032606FA05F4A14341F0706106E062
:10499000460D360103FA06F6B14341F0706122B1CB
:1049A000460D360103FA06F631431B4E7160F0BD29
:1049B00030B500228B071C0F0F2303FA04F2164BAD
:1049C00008338C1053F824309343134C08348D1063
:1049D00044F8253023468C1053F824308C07240FDC
:1049E00000FA04F423430C4C08348D1044F82530AD
:1049F00030BD0A49DC310860704700000008014002
:104A0000000C01400010014000140140001801405A
:104A1000001C014000200140000001400000204235
:104A200010B50121080700F0F0F900214FF0805087
:104A300000F0EBF910BD274908627047254908616D
:104A4000704701460020244A106820F0E000084327
:104A5000106070471F49A0310860704710B50246CA
:104A600000201D4B186820F00300104318601B4BFA
:104A70001B6843F00403194C2360012901D130BFA6
:104A800000E020BF10BD1448006840F00400124947
:104A900008600846006840F0020008600F4800689F
:104AA00040F004000D49086000BF00BF30BF7047F0
:104AB00001460020084A52680A400AB1012000E07D
:104AC000002070470449096841EA8001024A1160E8
:104AD0007047000000000E420070004010ED00E042
:104AE000DF48006840F00100DD4908600846406882
:104AF000DC490840DA49486008460068DA4908405D
:104B0000D74908600846006820F4802008600846FD
:104B1000406820F4FE0048604FF41F008860704732
:104B2000CF49096821F48031CD4A116011460968E6
:104B300021F480211160B0F5803F03D0B0F5802FC3
:104B40000ED106E0C649096841F48031C44A1160BB
:104B500007E0C349096841F4A021C14A116000E09F
:104B600000BF00BF704710B501460022002300209F
:104B70004A11012A02D1BA4C236806E0022A02D166
:104B8000B74C236A01E0B64C636A01F01F020124AE
:104B900094401C400CB1012000E0002010BD38B54D
:104BA000002000900024002500BF3120FFF7DBFF2C
:104BB00005460098401C00900098B0F5A06F01D009
:104BC000002DF2D03120FFF7CEFF08B1012400E024
:104BD0000024204638BD01460020A14A106820F07C
:104BE000F80040EAC10010607047A04908607047B3
:104BF000024600209A4B586820F47C1042EA0103D8
:104C00001843974B586070479849086670470146AB
:104C10000020934A506820F003000843506070471A
:104C20008F48406800F00C007047014600208C4A15
:104C3000506820F0F00008435060704701460020A3
:104C4000874A506820F4E06008435060704701468E
:104C50000020834A506820F4605040EAC100506050
:104C6000704729B17E4A527A02437D4B5A7204E062
:104C70007B4A527A82437A4B5A7270477B49D831C9
:104C80000860704701460020754A506820F4404093
:104C90000843506070470021714A20321170704AF9
:104CA00082F82010012802D004280AD104E0012152
:104CB0006B4A2032117005E00521694A20321170DB
:104CC00000E000BF00BF7047694908607047644951
:104CD000096A0143624A11627047654944390860B4
:104CE000704730B500210022002400235C4D6D6820
:104CF00005F00C0121B1042905D0082923D105E0D4
:104D00005C4D056022E05B4D05601FE0544D6D6811
:104D100005F47012524D6D6805F48034022505EBE0
:104D200092421CB9544D554305600BE04C4D6D68E3
:104D300005F400351DB1504D5543056002E04D4D61
:104D40005543056002E04B4D056000BF00BF444D78
:104D50006D6805F0F0010909484D6B5C0568DD40A0
:104D600045603F4D6D6805F4E061090A434D6B5C99
:104D70004568DD4085603A4D6D6805F46051C90AAB
:104D80003E4D6B5C4568DD40C560354D6D6805F492
:104D90004041890B3A4D6B5CC568B5FBF3F5056185
:104DA00030BD29B12E4A526902432D4B5A6104E0AD
:104DB0002B4A526982432A4B5A61704729B1284ACB
:104DC00092690243264B9A6104E0254A9269824324
:104DD000234B9A61704729B1214AD2690243204B83
:104DE000DA6104E01E4AD26982431D4BDA617047E2
:104DF00029B11B4AD2680243194BDA6004E0184A11
:104E0000D2688243164BDA60704729B1144A12699E
:104E10000243134B1A6104E0114A12698243104B9A
:104E20001A61704712494039086070470F49C864D9
:104E300070470B49C87170470948406A40F080705C
:104E400007494862704701460020054A92680A40B7
:104E50000AB1012000E000207047014988727047C4
:104E6000001002400000FFF8FFFFF6FE0000424283
:104E70008004424200127A0000093D00F200002046
:104E80000201002029B1504A128802434E4B1A8079
:104E900004E04D4A128882434B4B1A8070474A48BF
:104EA000001D008840F010004749091D0880704728
:104EB0004548001D00884FF6EF7108404249091D22
:104EC00008807047002140481C300188001F00887E
:104ED00041EA0040704700B50246FFF7E0FF100CC2
:104EE000394918310880091D0A80FFF7E1FF00BD2C
:104EF00000B50246FFF7D3FFC2F303403249083141
:104F00000880091D0A80FFF7D3FF00BD00B50246E7
:104F1000FFF7C5FF100C2C4920310880091D0A80BD
:104F2000FFF7C6FF00BD0020274910310988090797
:104F3000080B2549143109880843704700BF2248EF
:104F4000001D008800F020000028F8D070471E489F
:104F5000001D00884FF6F77108401B49091D0880A5
:104F600000BF1948001D008800F008000028F8D094
:104F7000704701460020144A121D12880A400AB1E7
:104F8000012000E0002070470F49091D0988814376
:104F90000D4A121D11807047014600200A4A121D59
:104FA00012880A40D0B2084A12880A4012B108B1E9
:104FB000012000E0002070470349091D0988814352
:104FC000014A121D118070470028004010B50446A8
:104FD000FE48844208D10121C014FFF709FF0021D7
:104FE000E014FFF705FF52E0B4F1804F08D1012132
:104FF0000846FFF70AFF00210120FFF706FF46E001
:10500000F348844208D101210220FFF7FEFE00216F
:105010000220FFF7FAFE3AE0EE48844208D101216F
:105020000420FFF7F2FE00210420FFF7EEFE2EE041
:10503000E948844208D101210820FFF7E6FE00215B
:105040000820FFF7E2FE22E0E448844208D1012173
:105050001020FFF7DAFE00211020FFF7D6FE16E041
:10506000DF48844208D101212020FFF7CEFE002135
:105070002020FFF7CAFE0AE0DA48844207D1012166
:105080004014FFF7B5FE00216014FFF7B1FE10BD1C
:10509000028802F08F020280CA884B881A43038874
:1050A0001A4302808A8882850A880285C74A90420C
:1050B00002D0CC4A904201D10A7A02860122828231
:1050C000704770B5002400220023058C4FF6FE7651
:1050D00035400584028C8388048B4FF68F752C40F5
:1050E0000D882C43751E2A400D892A434D882A437A
:1050F000CD888586B54DA84202D0BA4DA84213D1BD
:105100004FF6F7752A404D892A434FF6FB752A4022
:105110008D882A4347F6FF652B4047F6FF552B4005
:105120008D892B43CD892B4383800483028470BDFA
:1051300070B5002400220023058C4FF6EF76354031
:105140000584028C8388048B48F6FF752C400D88FB
:105150004FF6FF7606EA05252C434FF6DF752A4009
:105160000D8906EA05152A434D8806EA05152A43E6
:10517000CD880587954DA84202D09A4DA8421DD1F1
:105180004FF67F752A404D894FF6FF7606EA0515E2
:105190002A434FF6BF752A408D8806EA05152A4333
:1051A00047F6FF352B4047F2FF752B408D8906EA05
:1051B00085052B43CD8906EA85052B43838004832F
:1051C000028470BD70B5002400220023058C4FF6C8
:1051D000FF6635400584028C8388848B4FF68F757B
:1051E0002C400D882C434FF6FF552A400D894FF671
:1051F000FF7606EA05252A434D8806EA05252A4357
:10520000CD888587714DA84202D0764DA8421DD128
:105210004FF2FF752A404D894FF6FF7606EA0525C5
:105220002A434FF6FF352A408D8806EA05252A4392
:1052300046F6FF752B4045F6FF752B408D8906EA33
:1052400005152B43CD8906EA05152B4383808483FE
:10525000028470BD70B5002400220023058C4EF638
:10526000FF7635400584028C8388848B48F6FF7571
:105270002C400D884FF6FF7606EA05252C434DF6A7
:10528000FF752A400D8906EA05352A434D8806EA4E
:1052900005352A43CD88A0F840504C4DA84202D095
:1052A000504DA84207D1C3F30D038D894FF6FF7609
:1052B00006EA85152B4383808483028470BD828B2C
:1052C0004FF2FF331A408283828B4FF6FF7303EA5B
:1052D00001231A4382837047F0B50C46154600211E
:1052E00000220026078C4EF6FF7C07EA0C07078495
:1052F000818B028C4FF6FF7707EA043640F6FF47B2
:1053000039404FF6FF7707EA052739434FF6FF7715
:1053100007EA033739434DF6FF773A4046F48057A2
:105320003A4381830284F0BD828B4FF6F3731A40B7
:105330008283828B0A4382837047F0B50C46154600
:10534000002100220026078C4FF6FF6C07EA0C07AD
:105350000784818B028C4FF6FF7707EA04264FF60D
:105360000C7739404FF6FF7707EA03172F4339438D
:105370004FF6FF573A4046F480773A4381830284E0
:10538000F0BD028B4FF2FF331A400283028B4FF6BF
:10539000FF7303EA01231A4302837047F0B50C46FA
:1053A0001546002100220026078C4FF6EF7C07EA05
:1053B0000C070784018B028C4FF6FF7707EA04166F
:1053C00040F6FF4739404FF6FF770DE0002C0140D3
:1053D0000004004000080040000C004000100040A5
:1053E000001400400034014007EA033739434FF608
:1053F000FF7707EA052739434FF6DF773A4046F053
:1054000010073A4301830284F0BD028B4FF6F37319
:105410001A400283028B0A4302837047F0B50C46A0
:10542000154600210022068C4FF6FE773E4006848A
:10543000018B028C4FF60C7631407E1C06EA031677
:105440002E4331437E1E324044F001063243018335
:105450000284F0BD70B505460C46208850B92389FA
:10546000A28861882846FFF7D9FFE1882846FFF720
:10547000CCFF25E0208804280AD12389A2886188EE
:105480002846FFF78BFFE1882846FFF77AFF17E0F1
:10549000208808280AD12389A28861882846FFF736
:1054A0004CFFE1882846FFF73FFF09E02389A288E7
:1054B00061882846FFF710FFE1882846FFF7FFFEC6
:1054C00070BD2DE9F04105460C4600260127608895
:1054D00008B9022600E00026A088012801D1022791
:1054E00000E001272088A0B92389A2886188284686
:1054F000FFF794FFE1882846FFF787FF23893A46A4
:1055000031462846FFF74AFFE1882846FFF739FF72
:1055100013E02389A28861882846FFF73FFFE188CE
:105520002846FFF72EFF23893A4631462846FFF7E3
:1055300075FFE1882846FFF768FFBDE8F0810A881B
:105540004B881A438B881A43CB881A430B891A431A
:105550004B891A438B891A43A0F8442070474FF6B1
:10556000FF71818000210180C180418001727047FC
:105570000021018041808180C18001814181818140
:10558000C18170470021018041800121818000217B
:10559000C180018170470021018041808180C180EC
:1055A000018141818181704721B1028842F001026D
:1055B000028004E0028840F2FE331A400280704705
:1055C00031B1B0F8442042F40042A0F8442005E094
:1055D000B0F84420C2F30E02A0F8442070471AB17C
:1055E00083890B43838102E083898B4383817047E6
:1055F0008182704741EA0203A0F8483070471AB12F
:1056000083890B43838102E083898B4383817047C5
:1056100001894FF6F8721140018170470A46002156
:1056200001894FF68F73194011430181704730B5DE
:1056300004460D4629462046FFF7F0FF208940F03A
:105640000700208130BD2DE9F04104460D46164685
:105650001F46602D06D13B46012231462046FFF70A
:105660009DFE05E03B46012231462046FFF7D6FE6F
:1056700029462046FFF7D2FF208940F0070020810D
:10568000BDE8F08130B50C4600210189C9B24FF662
:10569000FF7505EA0325154325432943018130BDE4
:1056A0002DE9F04105460E4617469846002443462C
:1056B0003A4631462846FFF7E5FF2C894FF6F87049
:1056C000044044F007044FF68F70044044F0700427
:1056D0002C81BDE8F081F0B504460D4616461F4604
:1056E0003B46324629462046FFF7CCFF208940F44E
:1056F00080402081F0BD0185828270470A460021EA
:10570000018840F28F331940114301807047F0B592
:105710000C4615461E460021002200230189028BFB
:10572000038C4FF6F877394021434FF6FC473A4057
:1057300040F201173A434FF6DD773B404FF6FF77D3
:1057400007EA06172F433B43018102830384F0BD20
:105750000A460021018B4FF68F73194011430183D4
:1057600070470A460021018B48F6FF7319404FF637
:10577000FF7303EA02231943018370470A4600219D
:10578000818B4FF68F7319401143818370470A460E
:105790000021818B48F6FF7319404FF6FF7303EA2F
:1057A000022319438183704721B1028842F08002AD
:1057B000028004E0028840F27F331A400280704782
:1057C00021B1828842F00402828004E082884FF690
:1057D000FB731A408280704721B1828842F0080230
:1057E000828004E082884FF6F7731A408280704707
:1057F00021B1828842F00102828004E082884FF663
:10580000FE731A40828070470A460021018B4FF6D2
:10581000F77319401143018370470A460021018B39
:105820004FF2FF7319404FF6FF7303EA0223194347
:10583000018370470A460021818B4FF6F7731940A8
:105840001143818370470A460021818B4FF2FF7319
:1058500019404FF6FF7303EA02231943818370470F
:105860000A460021018B4FF6FB7319401143018357
:1058700070470A460021018B4FF6FF3319404FF65F
:10588000FF7303EA02231943018370470A4600218C
:10589000818B4FF6FB7319401143818370470A4691
:1058A0000021818B4FF6FF3319404FF6FF7303EA57
:1058B00002231943818370470A460021018B4FF66A
:1058C0007F7319401143018370470A460021018B01
:1058D000C1F30E014FF6FF7303EA0223194301835C
:1058E00070470A460021818B4FF67F7319401143A0
:1058F000818370470A460021818BC1F30E014FF668
:10590000FF7303EA02231943818370470A4600218B
:10591000018C4FF6FD7319401143018470470A460C
:105920000021018C4FF6F773194011430184704731
:105930000A460021018C4FF6DF7319404FF6FF73C2
:1059400003EA02131943018470470A460021018CBF
:105950004FF67F7319404FF6FF7303EA02131943A2
:10596000018470470A460021018C4FF6FF5319400D
:105970004FF6FF7303EA02231943018470470A4676
:105980000021018C4FF2FF7319404FF6FF7303EAB9
:1059900002231943018470470A460021018C4DF609
:1059A000FF7319404FF6FF7303EA02331943018472
:1059B000704730B5002301248C40A3B2048C9C4373
:1059C0000484048C02FA01F5ADB22C43048430BD8A
:1059D00030B5002304248C40A3B2048C9C4304847F
:1059E000048C02FA01F5ADB22C43048430BD70B5CD
:1059F0000346002000241846183001258D40ACB223
:105A00001D8CA5431D8409B108290AD100EB610052
:105A100005684FF68F7635400560056815430560CB
:105A20000FE00D1FC5F34E052844056848F6FF76C4
:105A30003540056005684FF6FF7606EA02263543D5
:105A4000056070BD21B1028842F00202028004E0CC
:105A5000028840F2FD331A400280704721B102886B
:105A600042F00402028004E0028840F2FB331A4054
:105A70000280704721B1828842F08002828004E077
:105A800082884FF67F731A4082807047028840F206
:105A9000F7331A40028002880A43028070478288E6
:105AA0004FF68F731A40828082880A438280704743
:105AB00002894FF6F8731A40028102890A43028173
:105AC000704702894FF67F731A40028102890A43A8
:105AD0000281704781847047818570478186704755
